# Sony Interactive Entertainment DualSense Edge Wireless Controller
# 0x05, 0x01,                    // Usage Page (Generic Desktop)        0
# 0x09, 0x05,                    // Usage (Game Pad)                    2
# 0xa1, 0x01,                    // Collection (Application)            4
# 0x85, 0x01,                    //  Report ID (1)                      6
# 0x09, 0x30,                    //  Usage (X)                          8
# 0x09, 0x31,                    //  Usage (Y)                          10
# 0x09, 0x32,                    //  Usage (Z)                          12
# 0x09, 0x35,                    //  Usage (Rz)                         14
# 0x09, 0x33,                    //  Usage (Rx)                         16
# 0x09, 0x34,                    //  Usage (Ry)                         18
# 0x15, 0x00,                    //  Logical Minimum (0)                20
# 0x26, 0xff, 0x00,              //  Logical Maximum (255)              22
# 0x75, 0x08,                    //  Report Size (8)                    25
# 0x95, 0x06,                    //  Report Count (6)                   27
# 0x81, 0x02,                    //  Input (Data,Var,Abs)               29
# 0x06, 0x00, 0xff,              //  Usage Page (Vendor Defined Page 1) 31
# 0x09, 0x20,                    //  Usage (Vendor Usage 0x20)          34
# 0x95, 0x01,                    //  Report Count (1)                   36
# 0x81, 0x02,                    //  Input (Data,Var,Abs)               38
# 0x05, 0x01,                    //  Usage Page (Generic Desktop)       40
# 0x09, 0x39,                    //  Usage (Hat switch)                 42
# 0x15, 0x00,                    //  Logical Minimum (0)                44
# 0x25, 0x07,                    //  Logical Maximum (7)                46
# 0x35, 0x00,                    //  Physical Minimum (0)               48
# 0x46, 0x3b, 0x01,              //  Physical Maximum (315)             50
# 0x65, 0x14,                    //  Unit (EnglishRotation: deg)        53
# 0x75, 0x04,                    //  Report Size (4)                    55
# 0x95, 0x01,                    //  Report Count (1)                   57
# 0x81, 0x42,                    //  Input (Data,Var,Abs,Null)          59
# 0x65, 0x00,                    //  Unit (None)                        61
# 0x05, 0x09,                    //  Usage Page (Button)                63
# 0x19, 0x01,                    //  Usage Minimum (1)                  65
# 0x29, 0x0f,                    //  Usage Maximum (15)                 67
# 0x15, 0x00,                    //  Logical Minimum (0)                69
# 0x25, 0x01,                    //  Logical Maximum (1)                71
# 0x75, 0x01,                    //  Report Size (1)                    73
# 0x95, 0x0f,                    //  Report Count (15)                  75
# 0x81, 0x02,                    //  Input (Data,Var,Abs)               77
# 0x06, 0x00, 0xff,              //  Usage Page (Vendor Defined Page 1) 79
# 0x09, 0x21,                    //  Usage (Vendor Usage 0x21)          82
# 0x95, 0x0d,                    //  Report Count (13)                  84
# 0x81, 0x02,                    //  Input (Data,Var,Abs)               86
# 0x06, 0x00, 0xff,              //  Usage Page (Vendor Defined Page 1) 88
# 0x09, 0x22,                    //  Usage (Vendor Usage 0x22)          91
# 0x15, 0x00,                    //  Logical Minimum (0)                93
# 0x26, 0xff, 0x00,              //  Logical Maximum (255)              95
# 0x75, 0x08,                    //  Report Size (8)                    98
# 0x95, 0x34,                    //  Report Count (52)                  100
# 0x81, 0x02,                    //  Input (Data,Var,Abs)               102
# 0x85, 0x02,                    //  Report ID (2)                      104
# 0x09, 0x23,                    //  Usage (Vendor Usage 0x23)          106
# 0x95, 0x3f,                    //  Report Count (63)                  108
# 0x91, 0x02,                    //  Output (Data,Var,Abs)              110
# 0x85, 0x05,                    //  Report ID (5)                      112
# 0x09, 0x33,                    //  Usage (Vendor Usage 0x33)          114
# 0x95, 0x28,                    //  Report Count (40)                  116
# 0xb1, 0x02,                    //  Feature (Data,Var,Abs)             118
# 0x85, 0x08,                    //  Report ID (8)                      120
# 0x09, 0x34,                    //  Usage (Vendor Usage 0x34)          122
# 0x95, 0x2f,                    //  Report Count (47)                  124
# 0xb1, 0x02,                    //  Feature (Data,Var,Abs)             126
# 0x85, 0x09,                    //  Report ID (9)                      128
# 0x09, 0x24,                    //  Usage (Vendor Usage 0x24)          130
# 0x95, 0x13,                    //  Report Count (19)                  132
# 0xb1, 0x02,                    //  Feature (Data,Var,Abs)             134
# 0x85, 0x0a,                    //  Report ID (10)                     136
# 0x09, 0x25,                    //  Usage (Vendor Usage 0x25)          138
# 0x95, 0x1a,                    //  Report Count (26)                  140
# 0xb1, 0x02,                    //  Feature (Data,Var,Abs)             142
# 0x85, 0x20,                    //  Report ID (32)                     144
# 0x09, 0x26,                    //  Usage (Vendor Usage 0x26)          146
# 0x95, 0x3f,                    //  Report Count (63)                  148
# 0xb1, 0x02,                    //  Feature (Data,Var,Abs)             150
# 0x85, 0x21,                    //  Report ID (33)                     152
# 0x09, 0x27,                    //  Usage (Vendor Usage 0x27)          154
# 0x95, 0x04,                    //  Report Count (4)                   156
# 0xb1, 0x02,                    //  Feature (Data,Var,Abs)             158
# 0x85, 0x22,                    //  Report ID (34)                     160
# 0x09, 0x40,                    //  Usage (Vendor Usage 0x40)          162
# 0x95, 0x3f,                    //  Report Count (63)                  164
# 0xb1, 0x02,                    //  Feature (Data,Var,Abs)             166
# 0x85, 0x80,                    //  Report ID (128)                    168
# 0x09, 0x28,                    //  Usage (Vendor Usage 0x28)          170
# 0x95, 0x3f,                    //  Report Count (63)                  172
# 0xb1, 0x02,                    //  Feature (Data,Var,Abs)             174
# 0x85, 0x81,                    //  Report ID (129)                    176
# 0x09, 0x29,                    //  Usage (Vendor Usage 0x29)          178
# 0x95, 0x3f,                    //  Report Count (63)                  180
# 0xb1, 0x02,                    //  Feature (Data,Var,Abs)             182
# 0x85, 0x82,                    //  Report ID (130)                    184
# 0x09, 0x2a,                    //  Usage (Vendor Usage 0x2a)          186
# 0x95, 0x09,                    //  Report Count (9)                   188
# 0xb1, 0x02,                    //  Feature (Data,Var,Abs)             190
# 0x85, 0x83,                    //  Report ID (131)                    192
# 0x09, 0x2b,                    //  Usage (Vendor Usage 0x2b)          194
# 0x95, 0x3f,                    //  Report Count (63)                  196
# 0xb1, 0x02,                    //  Feature (Data,Var,Abs)             198
# 0x85, 0x84,                    //  Report ID (132)                    200
# 0x09, 0x2c,                    //  Usage (Vendor Usage 0x2c)          202
# 0x95, 0x3f,                    //  Report Count (63)                  204
# 0xb1, 0x02,                    //  Feature (Data,Var,Abs)             206
# 0x85, 0x85,                    //  Report ID (133)                    208
# 0x09, 0x2d,                    //  Usage (Vendor Usage 0x2d)          210
# 0x95, 0x02,                    //  Report Count (2)                   212
# 0xb1, 0x02,                    //  Feature (Data,Var,Abs)             214
# 0x85, 0xa0,                    //  Report ID (160)                    216
# 0x09, 0x2e,                    //  Usage (Vendor Usage 0x2e)          218
# 0x95, 0x01,                    //  Report Count (1)                   220
# 0xb1, 0x02,                    //  Feature (Data,Var,Abs)             222
# 0x85, 0xe0,                    //  Report ID (224)                    224
# 0x09, 0x2f,                    //  Usage (Vendor Usage 0x2f)          226
# 0x95, 0x3f,                    //  Report Count (63)                  228
# 0xb1, 0x02,                    //  Feature (Data,Var,Abs)             230
# 0x85, 0xf0,                    //  Report ID (240)                    232
# 0x09, 0x30,                    //  Usage (Vendor Usage 0x30)          234
# 0x95, 0x3f,                    //  Report Count (63)                  236
# 0xb1, 0x02,                    //  Feature (Data,Var,Abs)             238
# 0x85, 0xf1,                    //  Report ID (241)                    240
# 0x09, 0x31,                    //  Usage (Vendor Usage 0x31)          242
# 0x95, 0x3f,                    //  Report Count (63)                  244
# 0xb1, 0x02,                    //  Feature (Data,Var,Abs)             246
# 0x85, 0xf2,                    //  Report ID (242)                    248
# 0x09, 0x32,                    //  Usage (Vendor Usage 0x32)          250
# 0x95, 0x34,                    //  Report Count (52)                  252
# 0xb1, 0x02,                    //  Feature (Data,Var,Abs)             254
# 0x85, 0xf4,                    //  Report ID (244)                    256
# 0x09, 0x35,                    //  Usage (Vendor Usage 0x35)          258
# 0x95, 0x3f,                    //  Report Count (63)                  260
# 0xb1, 0x02,                    //  Feature (Data,Var,Abs)             262
# 0x85, 0xf5,                    //  Report ID (245)                    264
# 0x09, 0x36,                    //  Usage (Vendor Usage 0x36)          266
# 0x95, 0x03,                    //  Report Count (3)                   268
# 0xb1, 0x02,                    //  Feature (Data,Var,Abs)             270
# 0x85, 0x60,                    //  Report ID (96)                     272
# 0x09, 0x41,                    //  Usage (Vendor Usage 0x41)          274
# 0x95, 0x3f,                    //  Report Count (63)                  276
# 0xb1, 0x02,                    //  Feature (Data,Var,Abs)             278
# 0x85, 0x61,                    //  Report ID (97)                     280
# 0x09, 0x42,                    //  Usage (Vendor Usage 0x42)          282
# 0xb1, 0x02,                    //  Feature (Data,Var,Abs)             284
# 0x85, 0x62,                    //  Report ID (98)                     286
# 0x09, 0x43,                    //  Usage (Vendor Usage 0x43)          288
# 0xb1, 0x02,                    //  Feature (Data,Var,Abs)             290
# 0x85, 0x63,                    //  Report ID (99)                     292
# 0x09, 0x44,                    //  Usage (Vendor Usage 0x44)          294
# 0xb1, 0x02,                    //  Feature (Data,Var,Abs)             296
# 0x85, 0x64,                    //  Report ID (100)                    298
# 0x09, 0x45,                    //  Usage (Vendor Usage 0x45)          300
# 0xb1, 0x02,                    //  Feature (Data,Var,Abs)             302
# 0x85, 0x65,                    //  Report ID (101)                    304
# 0x09, 0x46,                    //  Usage (Vendor Usage 0x46)          306
# 0xb1, 0x02,                    //  Feature (Data,Var,Abs)             308
# 0x85, 0x68,                    //  Report ID (104)                    310
# 0x09, 0x47,                    //  Usage (Vendor Usage 0x47)          312
# 0xb1, 0x02,                    //  Feature (Data,Var,Abs)             314
# 0x85, 0x70,                    //  Report ID (112)                    316
# 0x09, 0x48,                    //  Usage (Vendor Usage 0x48)          318
# 0xb1, 0x02,                    //  Feature (Data,Var,Abs)             320
# 0x85, 0x71,                    //  Report ID (113)                    322
# 0x09, 0x49,                    //  Usage (Vendor Usage 0x49)          324
# 0xb1, 0x02,                    //  Feature (Data,Var,Abs)             326
# 0x85, 0x72,                    //  Report ID (114)                    328
# 0x09, 0x4a,                    //  Usage (Vendor Usage 0x4a)          330
# 0xb1, 0x02,                    //  Feature (Data,Var,Abs)             332
# 0x85, 0x73,                    //  Report ID (115)                    334
# 0x09, 0x4b,                    //  Usage (Vendor Usage 0x4b)          336
# 0xb1, 0x02,                    //  Feature (Data,Var,Abs)             338
# 0x85, 0x74,                    //  Report ID (116)                    340
# 0x09, 0x4c,                    //  Usage (Vendor Usage 0x4c)          342
# 0xb1, 0x02,                    //  Feature (Data,Var,Abs)             344
# 0x85, 0x75,                    //  Report ID (117)                    346
# 0x09, 0x4d,                    //  Usage (Vendor Usage 0x4d)          348
# 0xb1, 0x02,                    //  Feature (Data,Var,Abs)             350
# 0x85, 0x76,                    //  Report ID (118)                    352
# 0x09, 0x4e,                    //  Usage (Vendor Usage 0x4e)          354
# 0xb1, 0x02,                    //  Feature (Data,Var,Abs)             356
# 0x85, 0x77,                    //  Report ID (119)                    358
# 0x09, 0x4f,                    //  Usage (Vendor Usage 0x4f)          360
# 0xb1, 0x02,                    //  Feature (Data,Var,Abs)             362
# 0x85, 0x78,                    //  Report ID (120)                    364
# 0x09, 0x50,                    //  Usage (Vendor Usage 0x50)          366
# 0xb1, 0x02,                    //  Feature (Data,Var,Abs)             368
# 0x85, 0x79,                    //  Report ID (121)                    370
# 0x09, 0x51,                    //  Usage (Vendor Usage 0x51)          372
# 0xb1, 0x02,                    //  Feature (Data,Var,Abs)             374
# 0x85, 0x7a,                    //  Report ID (122)                    376
# 0x09, 0x52,                    //  Usage (Vendor Usage 0x52)          378
# 0xb1, 0x02,                    //  Feature (Data,Var,Abs)             380
# 0x85, 0x7b,                    //  Report ID (123)                    382
# 0x09, 0x53,                    //  Usage (Vendor Usage 0x53)          384
# 0xb1, 0x02,                    //  Feature (Data,Var,Abs)             386
# 0xc0,                          // End Collection                      388
# 
R: 389 05 01 09 05 a1 01 85 01 09 30 09 31 09 32 09 35 09 33 09 34 15 00 26 ff 00 75 08 95 06 81 02 06 00 ff 09 20 95 01 81 02 05 01 09 39 15 00 25 07 35 00 46 3b 01 65 14 75 04 95 01 81 42 65 00 05 09 19 01 29 0f 15 00 25 01 75 01 95 0f 81 02 06 00 ff 09 21 95 0d 81 02 06 00 ff 09 22 15 00 26 ff 00 75 08 95 34 81 02 85 02 09 23 95 3f 91 02 85 05 09 33 95 28 b1 02 85 08 09 34 95 2f b1 02 85 09 09 24 95 13 b1 02 85 0a 09 25 95 1a b1 02 85 20 09 26 95 3f b1 02 85 21 09 27 95 04 b1 02 85 22 09 40 95 3f b1 02 85 80 09 28 95 3f b1 02 85 81 09 29 95 3f b1 02 85 82 09 2a 95 09 b1 02 85 83 09 2b 95 3f b1 02 85 84 09 2c 95 3f b1 02 85 85 09 2d 95 02 b1 02 85 a0 09 2e 95 01 b1 02 85 e0 09 2f 95 3f b1 02 85 f0 09 30 95 3f b1 02 85 f1 09 31 95 3f b1 02 85 f2 09 32 95 34 b1 02 85 f4 09 35 95 3f b1 02 85 f5 09 36 95 03 b1 02 85 60 09 41 95 3f b1 02 85 61 09 42 b1 02 85 62 09 43 b1 02 85 63 09 44 b1 02 85 64 09 45 b1 02 85 65 09 46 b1 02 85 68 09 47 b1 02 85 70 09 48 b1 02 85 71 09 49 b1 02 85 72 09 4a b1 02 85 73 09 4b b1 02 85 74 09 4c b1 02 85 75 09 4d b1 02 85 76 09 4e b1 02 85 77 09 4f b1 02 85 78 09 50 b1 02 85 79 09 51 b1 02 85 7a 09 52 b1 02 85 7b 09 53 b1 02 c0
N: Sony Interactive Entertainment DualSense Edge Wireless Controller
I: 3 054c 0df2
# ReportID: 1 / X:  131 | Y:  132 | Z:  126 | Rz:  129 | Rx:    0 | Ry:    0 | 0xff000020:  244 | Hat switch:   8 | Button: 0  0  0  0  0  0  0  0  0  0  0  0  0  0  0 | 0xff000021: 0 , 0 , 0 , 0 , 0 , 0 , 0 , 0 , 0 , 0 , 0 , 0 , 0 | 0xff000022:   51 ,  251 ,  190 ,  216 ,  252 ,  255 ,  243 ,  255 ,    7 ,    0 ,  194 ,  255 ,   54 ,   32 ,  170 ,    5 ,   87 ,  124 ,  181 ,   40 ,   14 ,  128 ,    0 ,    0 ,    0 ,  128 ,    0 ,    0 ,    0 ,    0 ,    0 ,    9 ,    0 ,    0 ,    0 ,    0 ,    0 ,   76 ,    0 ,    8 ,    0 ,   23 ,    8 ,    0 ,   26 ,   15 ,    8 ,   18 ,  117 ,  255 ,   18 ,   72 
E: 000000.000000 64 01 83 84 7e 81 00 00 f4 08 00 00 00 33 fb be d8 fc ff f3 ff 07 00 c2 ff 36 20 aa 05 57 7c b5 28 0e 80 00 00 00 80 00 00 00 00 00 09 00 00 00 00 00 4c 00 08 00 17 08 00 1a 0f 08 12 75 ff 12 48
# ReportID: 1 / X:  131 | Y:  132 | Z:  126 | Rz:  129 | Rx:    0 | Ry:    0 | 0xff000020:  245 | Hat switch:   8 | Button: 0  0  0  0  0  0  0  0  0  0  0  0  0  0  0 | 0xff000021: 0 , 0 , 0 , 0 , 0 , 0 , 0 , 0 , 0 , 0 , 0 , 0 , 0 | 0xff000022:   52 ,  251 ,  190 ,  216 ,  252 ,  255 ,  244 ,  255 ,    7 ,    0 ,  201 ,  255 ,   58 ,   32 ,  152 ,    5 ,    1 ,  139 ,  181 ,   40 ,   14 ,  128 ,    0 ,    0 ,    0 ,  128 ,    0 ,    0 ,    0 ,    0 ,    0 ,    9 ,    0 ,    0 ,    0 ,    0 ,    0 ,   76 ,    0 ,    8 ,    0 ,   23 ,    8 ,    0 ,  232 ,   79 ,   34 ,  239 ,  250 ,  209 ,  146 ,  231 
E: 000000.001465 64 01 83 84 7e 81 00 00 f5 08 00 00 00 34 fb be d8 fc ff f4 ff 07 00 c9 ff 3a 20 98 05 01 8b b5 28 0e 80 00 00 00 80 00 00 00 00 00 09 00 00 00 00 00 4c 00 08 00 17 08 00 e8 4f 22 ef fa d1 92 e7
# ReportID: 1 / X:  131 | Y:  132 | Z:  126 | Rz:  129 | Rx:    0 | Ry:    0 | 0xff000020:  246 | Hat switch:   8 | Button: 0  0  0  0  0  0  0  0  0  0  0  0  0  0  0 | 0xff000021: 0 , 0 , 0 , 0 , 0 , 0 , 0 , 0 , 0 , 0 , 0 , 0 , 0 | 0xff000022:   53 ,  251 ,  190 ,  216 ,  250 ,  255 ,  244 ,  255 ,    7 ,    0 ,  189 ,  255 ,   77 ,   32 ,  122 ,    5 ,    0 ,  150 ,  181 ,   40 ,   14 ,  128 ,    0 ,    0 ,    0 ,  128 ,    0 ,    0 ,    0 ,    0 ,    0 ,    9 ,    0 ,    0 ,    0 ,    0 ,    0 ,   76 ,    0 ,    8 ,    0 ,   23 ,    8 ,    0 ,  200 ,  229 ,  151 ,  175 ,  153 ,  210 ,   16 ,    7 
E: 000000.002669 64 01 83 84 7e 81 00 00 f6 08 00 00 00 35 fb be d8 fa ff f4 ff 07 00 bd ff 4d 20 7a 05 00 96 b5 28 0e 80 00 00 00 80 00 00 00 00 00 09 00 00 00 00 00 4c 00 08 00 17 08 00 c8 e5 97 af 99 d2 10 07
# ReportID: 1 / X:  131 | Y:  132 | Z:  126 | Rz:  129 | Rx:    0 | Ry:    0 | 0xff000020:  247 | Hat switch:   8 | Button: 0  0  0  0  0  0  0  0  0  0  0  0  0  0  0 | 0xff000021: 0 , 0 , 0 , 0 , 0 , 0 , 0 , 0 , 0 , 0 , 0 , 0 , 0 | 0xff000022:   54 ,  251 ,  190 ,  216 ,  251 ,  255 ,  246 ,  255 ,    5 ,    0 ,  191 ,  255 ,  106 ,   32 ,  100 ,    5 ,    0 ,  161 ,  181 ,   40 ,   14 ,  128 ,    0 ,    0 ,    0 ,  128 ,    0 ,    0 ,    0 ,    0 ,    0 ,    9 ,    0 ,    0 ,    0 ,    0 ,    0 ,   76 ,    0 ,    8 ,    0 ,   23 ,    8 ,    0 ,  242 ,   20 ,   45 ,   51 ,  110 ,  201 ,   36 ,  249 
E: 000000.003873 64 01 83 84 7e 81 00 00 f7 08 00 00 00 36 fb be d8 fb ff f6 ff 05 00 bf ff 6a 20 64 05 00 a1 b5 28 0e 80 00 00 00 80 00 00 00 00 00 09 00 00 00 00 00 4c 00 08 00 17 08 00 f2 14 2d 33 6e c9 24 f9
# ReportID: 1 / X:  131 | Y:  132 | Z:  126 | Rz:  129 | Rx:    0 | Ry:    0 | 0xff000020:  248 | Hat switch:   8 | Button: 0  0  0  0  0  0  0  0  0  0  0  0  0  0  0 | 0xff000021: 0 , 0 , 0 , 0 , 0 , 0 , 0 , 0 , 0 , 0 , 0 , 0 , 0 | 0xff000022:   55 ,  251 ,  190 ,  216 ,  251 ,  255 ,  244 ,  255 ,    6 ,    0 ,  187 ,  255 ,  123 ,   32 ,   77 ,    5 ,  255 ,  171 ,  181 ,   40 ,   14 ,  128 ,    0 ,    0 ,    0 ,  128 ,    0 ,    0 ,    0 ,    0 ,    0 ,    9 ,    0 ,    0 ,    0 ,    0 ,    0 ,   76 ,    0 ,    8 ,    0 ,   23 ,    8 ,    0 ,   44 ,   63 ,   97 ,  136 ,  249 ,  253 ,  160 ,   94 
E: 000000.004985 64 01 83 84 7e 81 00 00 f8 08 00 00 00 37 fb be d8 fb ff f4 ff 06 00 bb ff 7b 20 4d 05 ff ab b5 28 0e 80 00 00 00 80 00 00 00 00 00 09 00 00 00 00 00 4c 00 08 00 17 08 00 2c 3f 61 88 f9 fd a0 5e
# ReportID: 1 / X:  131 | Y:  132 | Z:  126 | Rz:  129 | Rx:    0 | Ry:    0 | 0xff000020:  249 | Hat switch:   8 | Button: 0  0  0  0  0  0  0  0  0  0  0  0  0  0  0 | 0xff000021: 0 , 0 , 0 , 0 , 0 , 0 , 0 , 0 , 0 , 0 , 0 , 0 , 0 | 0xff000022:   56 ,  251 ,  190 ,  216 ,  252 ,  255 ,  246 ,  255 ,    5 ,    0 ,  186 ,  255 ,  148 ,   32 ,   67 ,    5 ,  255 ,  182 ,  181 ,   40 ,   14 ,  128 ,    0 ,    0 ,    0 ,  128 ,    0 ,    0 ,    0 ,    0 ,    0 ,    9 ,    0 ,    0 ,    0 ,    0 ,    0 ,   76 ,    0 ,    8 ,    0 ,   23 ,    8 ,    0 ,   69 ,  163 ,  216 ,   64 ,  149 ,   70 ,   57 ,    3 
E: 000000.006060 64 01 83 84 7e 81 00 00 f9 08 00 00 00 38 fb be d8 fc ff f6 ff 05 00 ba ff 94 20 43 05 ff b6 b5 28 0e 80 00 00 00 80 00 00 00 00 00 09 00 00 00 00 00 4c 00 08 00 17 08 00 45 a3 d8 40 95 46 39 03
# ReportID: 1 / X:  131 | Y:  132 | Z:  126 | Rz:  129 | Rx:    0 | Ry:    0 | 0xff000020:  250 | Hat switch:   8 | Button: 0  0  0  0  0  0  0  0  0  0  0  0  0  0  0 | 0xff000021: 0 , 0 , 0 , 0 , 0 , 0 , 0 , 0 , 0 , 0 , 0 , 0 , 0 | 0xff000022:   57 ,  251 ,  190 ,  216 ,  249 ,  255 ,  246 ,  255 ,    3 ,    0 ,  180 ,  255 ,  179 ,   32 ,   71 ,    5 ,  169 ,  197 ,  181 ,   40 ,   14 ,  128 ,    0 ,    0 ,    0 ,  128 ,    0 ,    0 ,    0 ,    0 ,    0 ,    9 ,    0 ,    0 ,    0 ,    0 ,    0 ,   76 ,    0 ,    8 ,    0 ,   23 ,    8 ,    0 ,  164 ,    5 ,  202 ,  146 ,  249 ,  149 ,   18 ,  150 
E: 000000.007283 64 01 83 84 7e 81 00 00 fa 08 00 00 00 39 fb be d8 f9 ff f6 ff 03 00 b4 ff b3 20 47 05 a9 c5 b5 28 0e 80 00 00 00 80 00 00 00 00 00 09 00 00 00 00 00 4c 00 08 00 17 08 00 a4 05 ca 92 f9 95 12 96
# ReportID: 1 / X:  131 | Y:  132 | Z:  126 | Rz:  129 | Rx:    0 | Ry:    0 | 0xff000020:  251 | Hat switch:   8 | Button: 0  0  0  0  0  0  0  0  0  0  0  0  0  0  0 | 0xff000021: 0 , 0 , 0 , 0 , 0 , 0 , 0 , 0 , 0 , 0 , 0 , 0 , 0 | 0xff000022:   58 ,  251 ,  190 ,  216 ,  252 ,  255 ,  249 ,  255 ,    4 ,    0 ,  181 ,  255 ,  180 ,   32 ,   95 ,    5 ,  168 ,  208 ,  181 ,   40 ,   14 ,  128 ,    0 ,    0 ,    0 ,  128 ,    0 ,    0 ,    0 ,    0 ,    0 ,    9 ,    0 ,    0 ,    0 ,    0 ,    0 ,   76 ,    0 ,    8 ,    0 ,   23 ,    8 ,    0 ,   11 ,   12 ,  138 ,   52 ,   32 ,  237 ,   78 ,  210 
E: 000000.008461 64 01 83 84 7e 81 00 00 fb 08 00 00 00 3a fb be d8 fc ff f9 ff 04 00 b5 ff b4 20 5f 05 a8 d0 b5 28 0e 80 00 00 00 80 00 00 00 00 00 09 00 00 00 00 00 4c 00 08 00 17 08 00 0b 0c 8a 34 20 ed 4e d2
# ReportID: 1 / X:  131 | Y:  132 | Z:  126 | Rz:  129 | Rx:    0 | Ry:    0 | 0xff000020:  252 | Hat switch:   8 | Button: 0  0  0  0  0  0  0  0  0  0  0  0  0  0  0 | 0xff000021: 0 , 0 , 0 , 0 , 0 , 0 , 0 , 0 , 0 , 0 , 0 , 0 , 0 | 0xff000022:   59 ,  251 ,  190 ,  216 ,  251 ,  255 ,  243 ,  255 ,    5 ,    0 ,  184 ,  255 ,  147 ,   32 ,   95 ,    5 ,  168 ,  219 ,  181 ,   40 ,   14 ,  128 ,    0 ,    0 ,    0 ,  128 ,    0 ,    0 ,    0 ,    0 ,    0 ,    9 ,    0 ,    0 ,    0 ,    0 ,    0 ,   76 ,    0 ,    8 ,    0 ,   23 ,    8 ,    0 ,   27 ,  251 ,    2 ,    1 ,  169 ,   41 ,  192 ,  200 
E: 000000.009673 64 01 83 84 7e 81 00 00 fc 08 00 00 00 3b fb be d8 fb ff f3 ff 05 00 b8 ff 93 20 5f 05 a8 db b5 28 0e 80 00 00 00 80 00 00 00 00 00 09 00 00 00 00 00 4c 00 08 00 17 08 00 1b fb 02 01 a9 29 c0 c8
# ReportID: 1 / X:  131 | Y:  132 | Z:  126 | Rz:  129 | Rx:    0 | Ry:    0 | 0xff000020:  253 | Hat switch:   8 | Button: 0  0  0  0  0  0  0  0  0  0  0  0  0  0  0 | 0xff000021: 0 , 0 , 0 , 0 , 0 , 0 , 0 , 0 , 0 , 0 , 0 , 0 , 0 | 0xff000022:   60 ,  251 ,  190 ,  216 ,  251 ,  255 ,  243 ,  255 ,    5 ,    0 ,  192 ,  255 ,  115 ,   32 ,  107 ,    5 ,  168 ,  230 ,  181 ,   40 ,   14 ,  128 ,    0 ,    0 ,    0 ,  128 ,    0 ,    0 ,    0 ,    0 ,    0 ,    9 ,    0 ,    0 ,    0 ,    0 ,    0 ,   76 ,    0 ,    8 ,    0 ,   23 ,    8 ,    0 ,  199 ,   59 ,  132 ,  182 ,  159 ,  189 ,  123 ,  237 
E: 000000.010769 64 01 83 84 7e 81 00 00 fd 08 00 00 00 3c fb be d8 fb ff f3 ff 05 00 c0 ff 73 20 6b 05 a8 e6 b5 28 0e 80 00 00 00 80 00 00 00 00 00 09 00 00 00 00 00 4c 00 08 00 17 08 00 c7 3b 84 b6 9f bd 7b ed
# ReportID: 1 / X:  131 | Y:  132 | Z:  126 | Rz:  129 | Rx:    0 | Ry:    0 | 0xff000020:  254 | Hat switch:   8 | Button: 0  0  0  0  0  0  0  0  0  0  0  0  0  0  0 | 0xff000021: 0 , 0 , 0 , 0 , 0 , 0 , 0 , 0 , 0 , 0 , 0 , 0 , 0 | 0xff000022:   61 ,  251 ,  190 ,  216 ,  250 ,  255 ,  243 ,  255 ,    5 ,    0 ,  187 ,  255 ,   85 ,   32 ,  125 ,    5 ,  168 ,  241 ,  181 ,   40 ,   14 ,  128 ,    0 ,    0 ,    0 ,  128 ,    0 ,    0 ,    0 ,    0 ,    0 ,    9 ,    0 ,    0 ,    0 ,    0 ,    0 ,   76 ,    0 ,    8 ,    0 ,   23 ,    8 ,    0 ,  164 ,  166 ,   30 ,  178 ,   88 ,  177 ,   41 ,  114 
E: 000000.011933 64 01 83 84 7e 81 00 00 fe 08 00 00 00 3d fb be d8 fa ff f3 ff 05 00 bb ff 55 20 7d 05 a8 f1 b5 28 0e 80 00 00 00 80 00 00 00 00 00 09 00 00 00 00 00 4c 00 08 00 17 08 00 a4 a6 1e b2 58 b1 29 72
# ReportID: 1 / X:  131 | Y:  132 | Z:  126 | Rz:  129 | Rx:    0 | Ry:    0 | 0xff000020:  255 | Hat switch:   8 | Button: 0  0  0  0  0  0  0  0  0  0  0  0  0  0  0 | 0xff000021: 0 , 0 , 0 , 0 , 0 , 0 , 0 , 0 , 0 , 0 , 0 , 0 , 0 | 0xff000022:   62 ,  251 ,  190 ,  216 ,  248 ,  255 ,  245 ,  255 ,    6 ,    0 ,  166 ,  255 ,   43 ,   32 ,  126 ,    5 ,   82 ,    0 ,  182 ,   40 ,   14 ,  128 ,    0 ,    0 ,    0 ,  128 ,    0 ,    0 ,    0 ,    0 ,    0 ,    9 ,    0 ,    0 ,    0 ,    0 ,    0 ,   76 ,    0 ,    8 ,    0 ,   23 ,    8 ,    0 ,  163 ,  224 ,   95 ,  157 ,  103 ,  228 ,  179 ,  193 
E: 000000.013179 64 01 83 84 7e 81 00 00 ff 08 00 00 00 3e fb be d8 f8 ff f5 ff 06 00 a6 ff 2b 20 7e 05 52 00 b6 28 0e 80 00 00 00 80 00 00 00 00 00 09 00 00 00 00 00 4c 00 08 00 17 08 00 a3 e0 5f 9d 67 e4 b3 c1
# ReportID: 1 / X:  131 | Y:  132 | Z:  126 | Rz:  129 | Rx:    0 | Ry:    0 | 0xff000020:    0 | Hat switch:   8 | Button: 0  0  0  0  0  0  0  0  0  0  0  0  0  0  0 | 0xff000021: 0 , 0 , 0 , 0 , 0 , 0 , 0 , 0 , 0 , 0 , 0 , 0 , 0 | 0xff000022:   63 ,  251 ,  190 ,  216 ,  250 ,  255 ,  241 ,  255 ,    6 ,    0 ,  164 ,  255 ,   41 ,   32 ,  110 ,    5 ,   81 ,   11 ,  182 ,   40 ,   14 ,  128 ,    0 ,    0 ,    0 ,  128 ,    0 ,    0 ,    0 ,    0 ,    0 ,    9 ,    0 ,    0 ,    0 ,    0 ,    0 ,   76 ,    0 ,    8 ,    0 ,   23 ,    8 ,    0 ,  174 ,   92 ,   95 ,   18 ,  218 ,   17 ,  227 ,  110 
E: 000000.014260 64 01 83 84 7e 81 00 00 00 08 00 00 00 3f fb be d8 fa ff f1 ff 06 00 a4 ff 29 20 6e 05 51 0b b6 28 0e 80 00 00 00 80 00 00 00 00 00 09 00 00 00 00 00 4c 00 08 00 17 08 00 ae 5c 5f 12 da 11 e3 6e
# ReportID: 1 / X:  131 | Y:  132 | Z:  126 | Rz:  129 | Rx:    0 | Ry:    0 | 0xff000020:    1 | Hat switch:   8 | Button: 0  0  0  0  0  0  0  0  0  0  0  0  0  0  0 | 0xff000021: 0 , 0 , 0 , 0 , 0 , 0 , 0 , 0 , 0 , 0 , 0 , 0 , 0 | 0xff000022:   64 ,  251 ,  190 ,  216 ,  251 ,  255 ,  243 ,  255 ,    7 ,    0 ,  163 ,  255 ,   36 ,   32 ,  106 ,    5 ,   81 ,   22 ,  182 ,   40 ,   14 ,  128 ,    0 ,    0 ,    0 ,  128 ,    0 ,    0 ,    0 ,    0 ,    0 ,    9 ,    0 ,    0 ,    0 ,    0 ,    0 ,   76 ,    0 ,    8 ,    0 ,   23 ,    8 ,    0 ,  173 ,   80 ,   89 ,   26 ,   69 ,   47 ,    5 ,   61 
E: 000000.015338 64 01 83 84 7e 81 00 00 01 08 00 00 00 40 fb be d8 fb ff f3 ff 07 00 a3 ff 24 20 6a 05 51 16 b6 28 0e 80 00 00 00 80 00 00 00 00 00 09 00 00 00 00 00 4c 00 08 00 17 08 00 ad 50 59 1a 45 2f 05 3d
# ReportID: 1 / X:  131 | Y:  132 | Z:  126 | Rz:  129 | Rx:    0 | Ry:    0 | 0xff000020:    2 | Hat switch:   8 | Button: 0  0  0  0  0  0  0  0  0  0  0  0  0  0  0 | 0xff000021: 0 , 0 , 0 , 0 , 0 , 0 , 0 , 0 , 0 , 0 , 0 , 0 , 0 | 0xff000022:   65 ,  251 ,  190 ,  216 ,  251 ,  255 ,  244 ,  255 ,    7 ,    0 ,  153 ,  255 ,   47 ,   32 ,  104 ,    5 ,   80 ,   33 ,  182 ,   40 ,   14 ,  128 ,    0 ,    0 ,    0 ,  128 ,    0 ,    0 ,    0 ,    0 ,    0 ,    9 ,    0 ,    0 ,    0 ,    0 ,    0 ,   76 ,    0 ,    8 ,    0 ,   23 ,    8 ,    0 ,   41 ,  181 ,  115 ,   34 ,   63 ,  244 ,  162 ,  204 
E: 000000.016458 64 01 83 84 7e 81 00 00 02 08 00 00 00 41 fb be d8 fb ff f4 ff 07 00 99 ff 2f 20 68 05 50 21 b6 28 0e 80 00 00 00 80 00 00 00 00 00 09 00 00 00 00 00 4c 00 08 00 17 08 00 29 b5 73 22 3f f4 a2 cc
# ReportID: 1 / X:  131 | Y:  132 | Z:  126 | Rz:  129 | Rx:    0 | Ry:    0 | 0xff000020:    3 | Hat switch:   8 | Button: 0  0  0  0  0  0  0  0  0  0  0  0  0  0  0 | 0xff000021: 0 , 0 , 0 , 0 , 0 , 0 , 0 , 0 , 0 , 0 , 0 , 0 , 0 | 0xff000022:   66 ,  251 ,  190 ,  216 ,  252 ,  255 ,  244 ,  255 ,    7 ,    0 ,  156 ,  255 ,   73 ,   32 ,   95 ,    5 ,   80 ,   44 ,  182 ,   40 ,   14 ,  128 ,    0 ,    0 ,    0 ,  128 ,    0 ,    0 ,    0 ,    0 ,    0 ,    9 ,    0 ,    0 ,    0 ,    0 ,    0 ,   76 ,    0 ,    8 ,    0 ,   23 ,    8 ,    0 ,  150 ,   24 ,  117 ,  104 ,   63 ,  119 ,  183 ,  144 
E: 000000.017556 64 01 83 84 7e 81 00 00 03 08 00 00 00 42 fb be d8 fc ff f4 ff 07 00 9c ff 49 20 5f 05 50 2c b6 28 0e 80 00 00 00 80 00 00 00 00 00 09 00 00 00 00 00 4c 00 08 00 17 08 00 96 18 75 68 3f 77 b7 90
# ReportID: 1 / X:  131 | Y:  132 | Z:  126 | Rz:  129 | Rx:    0 | Ry:    0 | 0xff000020:    4 | Hat switch:   8 | Button: 0  0  0  0  0  0  0  0  0  0  0  0  0  0  0 | 0xff000021: 0 , 0 , 0 , 0 , 0 , 0 , 0 , 0 , 0 , 0 , 0 , 0 , 0 | 0xff000022:   67 ,  251 ,  190 ,  216 ,  250 ,  255 ,  244 ,  255 ,    5 ,    0 ,  187 ,  255 ,  105 ,   32 ,   79 ,    5 ,  250 ,   58 ,  182 ,   40 ,   14 ,  128 ,    0 ,    0 ,    0 ,  128 ,    0 ,    0 ,    0 ,    0 ,    0 ,    9 ,    0 ,    0 ,    0 ,    0 ,    0 ,   76 ,    0 ,    8 ,    0 ,   23 ,    8 ,    0 ,  210 ,  143 ,  243 ,  189 ,   93 ,  183 ,   74 ,  138 
E: 000000.018737 64 01 83 84 7e 81 00 00 04 08 00 00 00 43 fb be d8 fa ff f4 ff 05 00 bb ff 69 20 4f 05 fa 3a b6 28 0e 80 00 00 00 80 00 00 00 00 00 09 00 00 00 00 00 4c 00 08 00 17 08 00 d2 8f f3 bd 5d b7 4a 8a
# ReportID: 1 / X:  131 | Y:  132 | Z:  126 | Rz:  129 | Rx:    0 | Ry:    0 | 0xff000020:    5 | Hat switch:   8 | Button: 0  0  0  0  0  0  0  0  0  0  0  0  0  0  0 | 0xff000021: 0 , 0 , 0 , 0 , 0 , 0 , 0 , 0 , 0 , 0 , 0 , 0 , 0 | 0xff000022:   68 ,  251 ,  190 ,  216 ,  250 ,  255 ,  242 ,  255 ,    7 ,    0 ,  193 ,  255 ,  125 ,   32 ,   77 ,    5 ,  249 ,   69 ,  182 ,   40 ,   14 ,  128 ,    0 ,    0 ,    0 ,  128 ,    0 ,    0 ,    0 ,    0 ,    0 ,    9 ,    0 ,    0 ,    0 ,    0 ,    0 ,   76 ,    0 ,    8 ,    0 ,   23 ,    8 ,    0 ,  232 ,  241 ,  172 ,    5 ,  210 ,  225 ,  193 ,  176 
E: 000000.019937 64 01 83 84 7e 81 00 00 05 08 00 00 00 44 fb be d8 fa ff f2 ff 07 00 c1 ff 7d 20 4d 05 f9 45 b6 28 0e 80 00 00 00 80 00 00 00 00 00 09 00 00 00 00 00 4c 00 08 00 17 08 00 e8 f1 ac 05 d2 e1 c1 b0
# ReportID: 1 / X:  131 | Y:  132 | Z:  126 | Rz:  129 | Rx:    0 | Ry:    0 | 0xff000020:    6 | Hat switch:   8 | Button: 0  0  0  0  0  0  0  0  0  0  0  0  0  0  0 | 0xff000021: 0 , 0 , 0 , 0 , 0 , 0 , 0 , 0 , 0 , 0 , 0 , 0 , 0 | 0xff000022:   69 ,  251 ,  190 ,  216 ,  248 ,  255 ,  245 ,  255 ,    7 ,    0 ,  187 ,  255 ,  145 ,   32 ,   85 ,    5 ,  249 ,   80 ,  182 ,   40 ,   14 ,  128 ,    0 ,    0 ,    0 ,  128 ,    0 ,    0 ,    0 ,    0 ,    0 ,    9 ,    0 ,    0 ,    0 ,    0 ,    0 ,   76 ,    0 ,    8 ,    0 ,   23 ,    8 ,    0 ,    9 ,  160 ,   31 ,   87 ,   86 ,  124 ,  118 ,  176 
E: 000000.021131 64 01 83 84 7e 81 00 00 06 08 00 00 00 45 fb be d8 f8 ff f5 ff 07 00 bb ff 91 20 55 05 f9 50 b6 28 0e 80 00 00 00 80 00 00 00 00 00 09 00 00 00 00 00 4c 00 08 00 17 08 00 09 a0 1f 57 56 7c 76 b0
# ReportID: 1 / X:  131 | Y:  132 | Z:  126 | Rz:  129 | Rx:    0 | Ry:    0 | 0xff000020:    7 | Hat switch:   8 | Button: 0  0  0  0  0  0  0  0  0  0  0  0  0  0  0 | 0xff000021: 0 , 0 , 0 , 0 , 0 , 0 , 0 , 0 , 0 , 0 , 0 , 0 , 0 | 0xff000022:   70 ,  251 ,  190 ,  216 ,  247 ,  255 ,  245 ,  255 ,    6 ,    0 ,  170 ,  255 ,  147 ,   32 ,   97 ,    5 ,  248 ,   91 ,  182 ,   40 ,   14 ,  128 ,    0 ,    0 ,    0 ,  128 ,    0 ,    0 ,    0 ,    0 ,    0 ,    9 ,    0 ,    0 ,    0 ,    0 ,    0 ,   76 ,    0 ,    8 ,    0 ,   23 ,    8 ,    0 ,  146 ,  183 ,  238 ,  113 ,  243 ,   56 ,   99 ,  184 
E: 000000.022453 64 01 83 84 7e 81 00 00 07 08 00 00 00 46 fb be d8 f7 ff f5 ff 06 00 aa ff 93 20 61 05 f8 5b b6 28 0e 80 00 00 00 80 00 00 00 00 00 09 00 00 00 00 00 4c 00 08 00 17 08 00 92 b7 ee 71 f3 38 63 b8
# ReportID: 1 / X:  131 | Y:  132 | Z:  126 | Rz:  129 | Rx:    0 | Ry:    0 | 0xff000020:    8 | Hat switch:   8 | Button: 0  0  0  0  0  0  0  0  0  0  0  0  0  0  0 | 0xff000021: 0 , 0 , 0 , 0 , 0 , 0 , 0 , 0 , 0 , 0 , 0 , 0 , 0 | 0xff000022:   71 ,  251 ,  190 ,  216 ,  249 ,  255 ,  244 ,  255 ,    6 ,    0 ,  164 ,  255 ,  130 ,   32 ,  106 ,    5 ,  248 ,  102 ,  182 ,   40 ,   14 ,  128 ,    0 ,    0 ,    0 ,  128 ,    0 ,    0 ,    0 ,    0 ,    0 ,    9 ,    0 ,    0 ,    0 ,    0 ,    0 ,   76 ,    0 ,    8 ,    0 ,   23 ,    8 ,    0 ,   76 ,    3 ,  109 ,  169 ,   69 ,   99 ,   65 ,   64 
E: 000000.023721 64 01 83 84 7e 81 00 00 08 08 00 00 00 47 fb be d8 f9 ff f4 ff 06 00 a4 ff 82 20 6a 05 f8 66 b6 28 0e 80 00 00 00 80 00 00 00 00 00 09 00 00 00 00 00 4c 00 08 00 17 08 00 4c 03 6d a9 45 63 41 40
# ReportID: 1 / X:  131 | Y:  132 | Z:  126 | Rz:  129 | Rx:    0 | Ry:    0 | 0xff000020:    9 | Hat switch:   8 | Button: 0  0  0  0  0  0  0  0  0  0  0  0  0  0  0 | 0xff000021: 0 , 0 , 0 , 0 , 0 , 0 , 0 , 0 , 0 , 0 , 0 , 0 , 0 | 0xff000022:   72 ,  251 ,  190 ,  216 ,  249 ,  255 ,  245 ,  255 ,    7 ,    0 ,  157 ,  255 ,   89 ,   32 ,  113 ,    5 ,  162 ,  117 ,  182 ,   40 ,   14 ,  128 ,    0 ,    0 ,    0 ,  128 ,    0 ,    0 ,    0 ,    0 ,    0 ,    9 ,    0 ,    0 ,    0 ,    0 ,    0 ,   76 ,    0 ,    8 ,    0 ,   23 ,    8 ,    0 ,  255 ,  208 ,  228 ,  219 ,  167 ,  243 ,   73 ,  176 
E: 000000.024860 64 01 83 84 7e 81 00 00 09 08 00 00 00 48 fb be d8 f9 ff f5 ff 07 00 9d ff 59 20 71 05 a2 75 b6 28 0e 80 00 00 00 80 00 00 00 00 00 09 00 00 00 00 00 4c 00 08 00 17 08 00 ff d0 e4 db a7 f3 49 b0
# ReportID: 1 / X:  131 | Y:  132 | Z:  125 | Rz:  129 | Rx:    0 | Ry:    0 | 0xff000020:   10 | Hat switch:   8 | Button: 0  0  0  0  0  0  0  0  0  0  0  0  0  0  0 | 0xff000021: 0 , 0 , 0 , 0 , 0 , 0 , 0 , 0 , 0 , 0 , 0 , 0 , 0 | 0xff000022:   73 ,  251 ,  190 ,  216 ,  248 ,  255 ,  243 ,  255 ,    6 ,    0 ,  147 ,  255 ,   55 ,   32 ,  128 ,    5 ,  161 ,  128 ,  182 ,   40 ,   14 ,  128 ,    0 ,    0 ,    0 ,  128 ,    0 ,    0 ,    0 ,    0 ,    0 ,    9 ,    0 ,    0 ,    0 ,    0 ,    0 ,   76 ,    0 ,    8 ,    0 ,   23 ,    8 ,    0 ,   32 ,   18 ,   79 ,   39 ,  177 ,  137 ,  129 ,  242 
E: 000000.025947 64 01 83 84 7d 81 00 00 0a 08 00 00 00 49 fb be d8 f8 ff f3 ff 06 00 93 ff 37 20 80 05 a1 80 b6 28 0e 80 00 00 00 80 00 00 00 00 00 09 00 00 00 00 00 4c 00 08 00 17 08 00 20 12 4f 27 b1 89 81 f2
# ReportID: 1 / X:  131 | Y:  132 | Z:  126 | Rz:  129 | Rx:    0 | Ry:    0 | 0xff000020:   11 | Hat switch:   8 | Button: 0  0  0  0  0  0  0  0  0  0  0  0  0  0  0 | 0xff000021: 0 , 0 , 0 , 0 , 0 , 0 , 0 , 0 , 0 , 0 , 0 , 0 , 0 | 0xff000022:   74 ,  251 ,  190 ,  216 ,  251 ,  255 ,  245 ,  255 ,    5 ,    0 ,  134 ,  255 ,   48 ,   32 ,  145 ,    5 ,  161 ,  139 ,  182 ,   40 ,   14 ,  128 ,    0 ,    0 ,    0 ,  128 ,    0 ,    0 ,    0 ,    0 ,    0 ,    9 ,    0 ,    0 ,    0 ,    0 ,    0 ,   76 ,    0 ,    8 ,    0 ,   23 ,    8 ,    0 ,   91 ,  153 ,  114 ,   58 ,   26 ,   58 ,  121 ,  127 
E: 000000.027037 64 01 83 84 7e 81 00 00 0b 08 00 00 00 4a fb be d8 fb ff f5 ff 05 00 86 ff 30 20 91 05 a1 8b b6 28 0e 80 00 00 00 80 00 00 00 00 00 09 00 00 00 00 00 4c 00 08 00 17 08 00 5b 99 72 3a 1a 3a 79 7f
# ReportID: 1 / X:  131 | Y:  132 | Z:  126 | Rz:  129 | Rx:    0 | Ry:    0 | 0xff000020:   12 | Hat switch:   8 | Button: 0  0  0  0  0  0  0  0  0  0  0  0  0  0  0 | 0xff000021: 0 , 0 , 0 , 0 , 0 , 0 , 0 , 0 , 0 , 0 , 0 , 0 , 0 | 0xff000022:   75 ,  251 ,  190 ,  216 ,  252 ,  255 ,  245 ,  255 ,    4 ,    0 ,  147 ,  255 ,   44 ,   32 ,  141 ,    5 ,  161 ,  150 ,  182 ,   40 ,   14 ,  128 ,    0 ,    0 ,    0 ,  128 ,    0 ,    0 ,    0 ,    0 ,    0 ,    9 ,    0 ,    0 ,    0 ,    0 ,    0 ,   76 ,    0 ,    8 ,    0 ,   23 ,    8 ,    0 ,   23 ,  125 ,  151 ,  197 ,   91 ,  180 ,  220 ,    1 
E: 000000.028079 64 01 83 84 7e 81 00 00 0c 08 00 00 00 4b fb be d8 fc ff f5 ff 04 00 93 ff 2c 20 8d 05 a1 96 b6 28 0e 80 00 00 00 80 00 00 00 00 00 09 00 00 00 00 00 4c 00 08 00 17 08 00 17 7d 97 c5 5b b4 dc 01
# ReportID: 1 / X:  131 | Y:  132 | Z:  126 | Rz:  129 | Rx:    0 | Ry:    0 | 0xff000020:   13 | Hat switch:   8 | Button: 0  0  0  0  0  0  0  0  0  0  0  0  0  0  0 | 0xff000021: 0 , 0 , 0 , 0 , 0 , 0 , 0 , 0 , 0 , 0 , 0 , 0 , 0 | 0xff000022:   76 ,  251 ,  190 ,  216 ,  251 ,  255 ,  246 ,  255 ,    7 ,    0 ,  166 ,  255 ,   36 ,   32 ,  132 ,    5 ,  161 ,  161 ,  182 ,   40 ,   14 ,  128 ,    0 ,    0 ,    0 ,  128 ,    0 ,    0 ,    0 ,    0 ,    0 ,    9 ,    0 ,    0 ,    0 ,    0 ,    0 ,   76 ,    0 ,    8 ,    0 ,   23 ,    8 ,    0 ,  198 ,   90 ,  206 ,   85 ,   55 ,  104 ,  151 ,  150 
E: 000000.029143 64 01 83 84 7e 81 00 00 0d 08 00 00 00 4c fb be d8 fb ff f6 ff 07 00 a6 ff 24 20 84 05 a1 a1 b6 28 0e 80 00 00 00 80 00 00 00 00 00 09 00 00 00 00 00 4c 00 08 00 17 08 00 c6 5a ce 55 37 68 97 96
# ReportID: 1 / X:  131 | Y:  132 | Z:  126 | Rz:  129 | Rx:    0 | Ry:    0 | 0xff000020:   14 | Hat switch:   8 | Button: 0  0  0  0  0  0  0  0  0  0  0  0  0  0  0 | 0xff000021: 0 , 0 , 0 , 0 , 0 , 0 , 0 , 0 , 0 , 0 , 0 , 0 , 0 | 0xff000022:   77 ,  251 ,  190 ,  216 ,  249 ,  255 ,  245 ,  255 ,    6 ,    0 ,  178 ,  255 ,   36 ,   32 ,  104 ,    5 ,   75 ,  176 ,  182 ,   40 ,   14 ,  128 ,    0 ,    0 ,    0 ,  128 ,    0 ,    0 ,    0 ,    0 ,    0 ,    9 ,    0 ,    0 ,    0 ,    0 ,    0 ,   76 ,    0 ,    8 ,    0 ,   23 ,    8 ,    0 ,   43 ,   64 ,  137 ,   99 ,  244 ,  236 ,   80 ,  234 
E: 000000.030351 64 01 83 84 7e 81 00 00 0e 08 00 00 00 4d fb be d8 f9 ff f5 ff 06 00 b2 ff 24 20 68 05 4b b0 b6 28 0e 80 00 00 00 80 00 00 00 00 00 09 00 00 00 00 00 4c 00 08 00 17 08 00 2b 40 89 63 f4 ec 50 ea
# ReportID: 1 / X:  131 | Y:  132 | Z:  126 | Rz:  129 | Rx:    0 | Ry:    0 | 0xff000020:   15 | Hat switch:   8 | Button: 0  0  0  0  0  0  0  0  0  0  0  0  0  0  0 | 0xff000021: 0 , 0 , 0 , 0 , 0 , 0 , 0 , 0 , 0 , 0 , 0 , 0 , 0 | 0xff000022:   78 ,  251 ,  190 ,  216 ,  250 ,  255 ,  244 ,  255 ,    6 ,    0 ,  184 ,  255 ,   62 ,   32 ,   92 ,    5 ,   74 ,  187 ,  182 ,   40 ,   14 ,  128 ,    0 ,    0 ,    0 ,  128 ,    0 ,    0 ,    0 ,    0 ,    0 ,    9 ,    0 ,    0 ,    0 ,    0 ,    0 ,   76 ,    0 ,    8 ,    0 ,   23 ,    8 ,    0 ,  136 ,  225 ,  123 ,  222 ,   30 ,  115 ,  141 ,  102 
E: 000000.031523 64 01 83 84 7e 81 00 00 0f 08 00 00 00 4e fb be d8 fa ff f4 ff 06 00 b8 ff 3e 20 5c 05 4a bb b6 28 0e 80 00 00 00 80 00 00 00 00 00 09 00 00 00 00 00 4c 00 08 00 17 08 00 88 e1 7b de 1e 73 8d 66
# ReportID: 1 / X:  131 | Y:  132 | Z:  126 | Rz:  129 | Rx:    0 | Ry:    0 | 0xff000020:   16 | Hat switch:   8 | Button: 0  0  0  0  0  0  0  0  0  0  0  0  0  0  0 | 0xff000021: 0 , 0 , 0 , 0 , 0 , 0 , 0 , 0 , 0 , 0 , 0 , 0 , 0 | 0xff000022:   79 ,  251 ,  190 ,  216 ,  251 ,  255 ,  243 ,  255 ,    7 ,    0 ,  185 ,  255 ,   64 ,   32 ,   84 ,    5 ,   74 ,  198 ,  182 ,   40 ,   14 ,  128 ,    0 ,    0 ,    0 ,  128 ,    0 ,    0 ,    0 ,    0 ,    0 ,    9 ,    0 ,    0 ,    0 ,    0 ,    0 ,   76 ,    0 ,    8 ,    0 ,   23 ,    8 ,    0 ,  118 ,   46 ,  128 ,  193 ,   85 ,   70 ,  186 ,  162 
E: 000000.032662 64 01 83 84 7e 81 00 00 10 08 00 00 00 4f fb be d8 fb ff f3 ff 07 00 b9 ff 40 20 54 05 4a c6 b6 28 0e 80 00 00 00 80 00 00 00 00 00 09 00 00 00 00 00 4c 00 08 00 17 08 00 76 2e 80 c1 55 46 ba a2
# ReportID: 1 / X:  131 | Y:  132 | Z:  126 | Rz:  129 | Rx:    0 | Ry:    0 | 0xff000020:   17 | Hat switch:   8 | Button: 0  0  0  0  0  0  0  0  0  0  0  0  0  0  0 | 0xff000021: 0 , 0 , 0 , 0 , 0 , 0 , 0 , 0 , 0 , 0 , 0 , 0 , 0 | 0xff000022:   80 ,  251 ,  190 ,  216 ,  251 ,  255 ,  246 ,  255 ,    7 ,    0 ,  170 ,  255 ,   75 ,   32 ,   80 ,    5 ,   73 ,  209 ,  182 ,   40 ,   14 ,  128 ,    0 ,    0 ,    0 ,  128 ,    0 ,    0 ,    0 ,    0 ,    0 ,    9 ,    0 ,    0 ,    0 ,    0 ,    0 ,   76 ,    0 ,    8 ,    0 ,   23 ,    8 ,    0 ,   98 ,   14 ,  237 ,   35 ,  107 ,   51 ,   77 ,  139 
E: 000000.033723 64 01 83 84 7e 81 00 00 11 08 00 00 00 50 fb be d8 fb ff f6 ff 07 00 aa ff 4b 20 50 05 49 d1 b6 28 0e 80 00 00 00 80 00 00 00 00 00 09 00 00 00 00 00 4c 00 08 00 17 08 00 62 0e ed 23 6b 33 4d 8b
# ReportID: 1 / X:  131 | Y:  132 | Z:  126 | Rz:  129 | Rx:    0 | Ry:    0 | 0xff000020:   18 | Hat switch:   8 | Button: 0  0  0  0  0  0  0  0  0  0  0  0  0  0  0 | 0xff000021: 0 , 0 , 0 , 0 , 0 , 0 , 0 , 0 , 0 , 0 , 0 , 0 , 0 | 0xff000022:   81 ,  251 ,  190 ,  216 ,  250 ,  255 ,  247 ,  255 ,    6 ,    0 ,  166 ,  255 ,   93 ,   32 ,  100 ,    5 ,   73 ,  220 ,  182 ,   40 ,   14 ,  128 ,    0 ,    0 ,    0 ,  128 ,    0 ,    0 ,    0 ,    0 ,    0 ,    9 ,    0 ,    0 ,    0 ,    0 ,    0 ,   76 ,    0 ,    8 ,    0 ,   23 ,    8 ,    0 ,    3 ,   96 ,   74 ,   55 ,   93 ,  187 ,  237 ,  198 
E: 000000.034702 64 01 83 84 7e 81 00 00 12 08 00 00 00 51 fb be d8 fa ff f7 ff 06 00 a6 ff 5d 20 64 05 49 dc b6 28 0e 80 00 00 00 80 00 00 00 00 00 09 00 00 00 00 00 4c 00 08 00 17 08 00 03 60 4a 37 5d bb ed c6
# ReportID: 1 / X:  131 | Y:  132 | Z:  126 | Rz:  129 | Rx:    0 | Ry:    0 | 0xff000020:   19 | Hat switch:   8 | Button: 0  0  0  0  0  0  0  0  0  0  0  0  0  0  0 | 0xff000021: 0 , 0 , 0 , 0 , 0 , 0 , 0 , 0 , 0 , 0 , 0 , 0 , 0 | 0xff000022:   82 ,  251 ,  190 ,  216 ,  251 ,  255 ,  244 ,  255 ,    6 ,    0 ,  161 ,  255 ,   93 ,   32 ,  101 ,    5 ,  243 ,  234 ,  182 ,   40 ,   14 ,  128 ,    0 ,    0 ,    0 ,  128 ,    0 ,    0 ,    0 ,    0 ,    0 ,    9 ,    0 ,    0 ,    0 ,    0 ,    0 ,   76 ,    0 ,    8 ,    0 ,   23 ,    8 ,    0 ,  225 ,   86 ,  138 ,  149 ,   88 ,   73 ,  211 ,   22 
E: 000000.035894 64 01 83 84 7e 81 00 00 13 08 00 00 00 52 fb be d8 fb ff f4 ff 06 00 a1 ff 5d 20 65 05 f3 ea b6 28 0e 80 00 00 00 80 00 00 00 00 00 09 00 00 00 00 00 4c 00 08 00 17 08 00 e1 56 8a 95 58 49 d3 16
# ReportID: 1 / X:  131 | Y:  132 | Z:  126 | Rz:  129 | Rx:    0 | Ry:    0 | 0xff000020:   20 | Hat switch:   8 | Button: 0  0  0  0  0  0  0  0  0  0  0  0  0  0  0 | 0xff000021: 0 , 0 , 0 , 0 , 0 , 0 , 0 , 0 , 0 , 0 , 0 , 0 , 0 | 0xff000022:   83 ,  251 ,  190 ,  216 ,  251 ,  255 ,  242 ,  255 ,    8 ,    0 ,  160 ,  255 ,   85 ,   32 ,  114 ,    5 ,  242 ,  245 ,  182 ,   40 ,   14 ,  128 ,    0 ,    0 ,    0 ,  128 ,    0 ,    0 ,    0 ,    0 ,    0 ,    9 ,    0 ,    0 ,    0 ,    0 ,    0 ,   76 ,    0 ,    8 ,    0 ,   23 ,    8 ,    0 ,  255 ,  131 ,  215 ,  233 ,  188 ,  171 ,   40 ,   93 
E: 000000.037008 64 01 83 84 7e 81 00 00 14 08 00 00 00 53 fb be d8 fb ff f2 ff 08 00 a0 ff 55 20 72 05 f2 f5 b6 28 0e 80 00 00 00 80 00 00 00 00 00 09 00 00 00 00 00 4c 00 08 00 17 08 00 ff 83 d7 e9 bc ab 28 5d
# ReportID: 1 / X:  131 | Y:  132 | Z:  125 | Rz:  129 | Rx:    0 | Ry:    0 | 0xff000020:   21 | Hat switch:   8 | Button: 0  0  0  0  0  0  0  0  0  0  0  0  0  0  0 | 0xff000021: 0 , 0 , 0 , 0 , 0 , 0 , 0 , 0 , 0 , 0 , 0 , 0 , 0 | 0xff000022:   84 ,  251 ,  190 ,  216 ,  250 ,  255 ,  245 ,  255 ,    6 ,    0 ,  162 ,  255 ,   77 ,   32 ,  135 ,    5 ,  242 ,    0 ,  183 ,   40 ,   14 ,  128 ,    0 ,    0 ,    0 ,  128 ,    0 ,    0 ,    0 ,    0 ,    0 ,    9 ,    0 ,    0 ,    0 ,    0 ,    0 ,   76 ,    0 ,    8 ,    0 ,   23 ,    8 ,    0 ,   82 ,   78 ,   77 ,  173 ,  214 ,  181 ,   26 ,  199 
E: 000000.038139 64 01 83 84 7d 81 00 00 15 08 00 00 00 54 fb be d8 fa ff f5 ff 06 00 a2 ff 4d 20 87 05 f2 00 b7 28 0e 80 00 00 00 80 00 00 00 00 00 09 00 00 00 00 00 4c 00 08 00 17 08 00 52 4e 4d ad d6 b5 1a c7
# ReportID: 1 / X:  131 | Y:  132 | Z:  126 | Rz:  129 | Rx:    0 | Ry:    0 | 0xff000020:   22 | Hat switch:   8 | Button: 0  0  0  0  0  0  0  0  0  0  0  0  0  0  0 | 0xff000021: 0 , 0 , 0 , 0 , 0 , 0 , 0 , 0 , 0 , 0 , 0 , 0 , 0 | 0xff000022:   85 ,  251 ,  190 ,  216 ,  251 ,  255 ,  246 ,  255 ,    5 ,    0 ,  164 ,  255 ,   55 ,   32 ,  150 ,    5 ,  241 ,   11 ,  183 ,   40 ,   14 ,  128 ,    0 ,    0 ,    0 ,  128 ,    0 ,    0 ,    0 ,    0 ,    0 ,    9 ,    0 ,    0 ,    0 ,    0 ,    0 ,   76 ,    0 ,    8 ,    0 ,   23 ,    8 ,    0 ,  165 ,  195 ,  206 ,  230 ,  247 ,  254 ,   33 ,  212 
E: 000000.039341 64 01 83 84 7e 81 00 00 16 08 00 00 00 55 fb be d8 fb ff f6 ff 05 00 a4 ff 37 20 96 05 f1 0b b7 28 0e 80 00 00 00 80 00 00 00 00 00 09 00 00 00 00 00 4c 00 08 00 17 08 00 a5 c3 ce e6 f7 fe 21 d4
# ReportID: 1 / X:  131 | Y:  132 | Z:  126 | Rz:  129 | Rx:    0 | Ry:    0 | 0xff000020:   23 | Hat switch:   8 | Button: 0  0  0  0  0  0  0  0  0  0  0  0  0  0  0 | 0xff000021: 0 , 0 , 0 , 0 , 0 , 0 , 0 , 0 , 0 , 0 , 0 , 0 , 0 | 0xff000022:   86 ,  251 ,  190 ,  216 ,  251 ,  255 ,  243 ,  255 ,    5 ,    0 ,  157 ,  255 ,   54 ,   32 ,  168 ,    5 ,  241 ,   22 ,  183 ,   40 ,   14 ,  128 ,    0 ,    0 ,    0 ,  128 ,    0 ,    0 ,    0 ,    0 ,    0 ,    9 ,    0 ,    0 ,    0 ,    0 ,    0 ,   76 ,    0 ,    8 ,    0 ,   23 ,    8 ,    0 ,  207 ,   33 ,  194 ,  253 ,  117 ,   56 ,  174 ,  233 
E: 000000.040435 64 01 83 84 7e 81 00 00 17 08 00 00 00 56 fb be d8 fb ff f3 ff 05 00 9d ff 36 20 a8 05 f1 16 b7 28 0e 80 00 00 00 80 00 00 00 00 00 09 00 00 00 00 00 4c 00 08 00 17 08 00 cf 21 c2 fd 75 38 ae e9
# ReportID: 1 / X:  131 | Y:  132 | Z:  126 | Rz:  129 | Rx:    0 | Ry:    0 | 0xff000020:   24 | Hat switch:   8 | Button: 0  0  0  0  0  0  0  0  0  0  0  0  0  0  0 | 0xff000021: 0 , 0 , 0 , 0 , 0 , 0 , 0 , 0 , 0 , 0 , 0 , 0 , 0 | 0xff000022:   87 ,  251 ,  190 ,  216 ,  252 ,  255 ,  245 ,  255 ,    7 ,    0 ,  148 ,  255 ,   40 ,   32 ,  141 ,    5 ,  155 ,   37 ,  183 ,   40 ,   14 ,  128 ,    0 ,    0 ,    0 ,  128 ,    0 ,    0 ,    0 ,    0 ,    0 ,    9 ,    0 ,    0 ,    0 ,    0 ,    0 ,   76 ,    0 ,    8 ,    0 ,   23 ,    8 ,    0 ,   63 ,  103 ,  208 ,  215 ,  229 ,  119 ,   27 ,  241 
E: 000000.041626 64 01 83 84 7e 81 00 00 18 08 00 00 00 57 fb be d8 fc ff f5 ff 07 00 94 ff 28 20 8d 05 9b 25 b7 28 0e 80 00 00 00 80 00 00 00 00 00 09 00 00 00 00 00 4c 00 08 00 17 08 00 3f 67 d0 d7 e5 77 1b f1
# ReportID: 1 / X:  131 | Y:  132 | Z:  126 | Rz:  129 | Rx:    0 | Ry:    0 | 0xff000020:   25 | Hat switch:   8 | Button: 0  0  0  0  0  0  0  0  0  0  0  0  0  0  0 | 0xff000021: 0 , 0 , 0 , 0 , 0 , 0 , 0 , 0 , 0 , 0 , 0 , 0 , 0 | 0xff000022:   88 ,  251 ,  190 ,  216 ,  251 ,  255 ,  245 ,  255 ,    6 ,    0 ,  160 ,  255 ,   34 ,   32 ,  150 ,    5 ,  154 ,   48 ,  183 ,   40 ,   14 ,  128 ,    0 ,    0 ,    0 ,  128 ,    0 ,    0 ,    0 ,    0 ,    0 ,    9 ,    0 ,    0 ,    0 ,    0 ,    0 ,   76 ,    0 ,    8 ,    0 ,   23 ,    8 ,    0 ,   54 ,  228 ,   79 ,  176 ,  186 ,   78 ,  234 ,   50 
E: 000000.042619 64 01 83 84 7e 81 00 00 19 08 00 00 00 58 fb be d8 fb ff f5 ff 06 00 a0 ff 22 20 96 05 9a 30 b7 28 0e 80 00 00 00 80 00 00 00 00 00 09 00 00 00 00 00 4c 00 08 00 17 08 00 36 e4 4f b0 ba 4e ea 32
# ReportID: 1 / X:  131 | Y:  132 | Z:  126 | Rz:  129 | Rx:    0 | Ry:    0 | 0xff000020:   26 | Hat switch:   8 | Button: 0  0  0  0  0  0  0  0  0  0  0  0  0  0  0 | 0xff000021: 0 , 0 , 0 , 0 , 0 , 0 , 0 , 0 , 0 , 0 , 0 , 0 , 0 | 0xff000022:   89 ,  251 ,  190 ,  216 ,  251 ,  255 ,  245 ,  255 ,    6 ,    0 ,  155 ,  255 ,   54 ,   32 ,  132 ,    5 ,  154 ,   59 ,  183 ,   40 ,   14 ,  128 ,    0 ,    0 ,    0 ,  128 ,    0 ,    0 ,    0 ,    0 ,    0 ,    9 ,    0 ,    0 ,    0 ,    0 ,    0 ,   76 ,    0 ,    8 ,    0 ,   23 ,    8 ,    0 ,  205 ,   94 ,  210 ,   90 ,  242 ,  178 ,    0 ,   37 
E: 000000.043541 64 01 83 84 7e 81 00 00 1a 08 00 00 00 59 fb be d8 fb ff f5 ff 06 00 9b ff 36 20 84 05 9a 3b b7 28 0e 80 00 00 00 80 00 00 00 00 00 09 00 00 00 00 00 4c 00 08 00 17 08 00 cd 5e d2 5a f2 b2 00 25
# ReportID: 1 / X:  131 | Y:  132 | Z:  126 | Rz:  129 | Rx:    0 | Ry:    0 | 0xff000020:   27 | Hat switch:   8 | Button: 0  0  0  0  0  0  0  0  0  0  0  0  0  0  0 | 0xff000021: 0 , 0 , 0 , 0 , 0 , 0 , 0 , 0 , 0 , 0 , 0 , 0 , 0 | 0xff000022:   90 ,  251 ,  190 ,  216 ,  252 ,  255 ,  243 ,  255 ,    6 ,    0 ,  153 ,  255 ,   61 ,   32 ,  137 ,    5 ,  154 ,   70 ,  183 ,   40 ,   14 ,  128 ,    0 ,    0 ,    0 ,  128 ,    0 ,    0 ,    0 ,    0 ,    0 ,    9 ,    0 ,    0 ,    0 ,    0 ,    0 ,   76 ,    0 ,    8 ,    0 ,   23 ,    8 ,    0 ,  144 ,   78 ,   93 ,  222 ,  203 ,  252 ,  129 ,  138 
E: 000000.044735 64 01 83 84 7e 81 00 00 1b 08 00 00 00 5a fb be d8 fc ff f3 ff 06 00 99 ff 3d 20 89 05 9a 46 b7 28 0e 80 00 00 00 80 00 00 00 00 00 09 00 00 00 00 00 4c 00 08 00 17 08 00 90 4e 5d de cb fc 81 8a
# ReportID: 1 / X:  131 | Y:  132 | Z:  126 | Rz:  129 | Rx:    0 | Ry:    0 | 0xff000020:   28 | Hat switch:   8 | Button: 0  0  0  0  0  0  0  0  0  0  0  0  0  0  0 | 0xff000021: 0 , 0 , 0 , 0 , 0 , 0 , 0 , 0 , 0 , 0 , 0 , 0 , 0 | 0xff000022:   91 ,  251 ,  190 ,  216 ,  252 ,  255 ,  243 ,  255 ,    6 ,    0 ,  166 ,  255 ,  109 ,   32 ,  100 ,    5 ,  154 ,   81 ,  183 ,   40 ,   14 ,  128 ,    0 ,    0 ,    0 ,  128 ,    0 ,    0 ,    0 ,    0 ,    0 ,    9 ,    0 ,    0 ,    0 ,    0 ,    0 ,   76 ,    0 ,    8 ,    0 ,   23 ,    8 ,    0 ,   99 ,  230 ,    8 ,  100 ,   20 ,  114 ,   15 ,  197 
E: 000000.045629 64 01 83 84 7e 81 00 00 1c 08 00 00 00 5b fb be d8 fc ff f3 ff 06 00 a6 ff 6d 20 64 05 9a 51 b7 28 0e 80 00 00 00 80 00 00 00 00 00 09 00 00 00 00 00 4c 00 08 00 17 08 00 63 e6 08 64 14 72 0f c5
# ReportID: 1 / X:  131 | Y:  132 | Z:  126 | Rz:  129 | Rx:    0 | Ry:    0 | 0xff000020:   29 | Hat switch:   8 | Button: 0  0  0  0  0  0  0  0  0  0  0  0  0  0  0 | 0xff000021: 0 , 0 , 0 , 0 , 0 , 0 , 0 , 0 , 0 , 0 , 0 , 0 , 0 | 0xff000022:   92 ,  251 ,  190 ,  216 ,  252 ,  255 ,  243 ,  255 ,    5 ,    0 ,  178 ,  255 ,  129 ,   32 ,  107 ,    5 ,   68 ,   96 ,  183 ,   40 ,   14 ,  128 ,    0 ,    0 ,    0 ,  128 ,    0 ,    0 ,    0 ,    0 ,    0 ,    9 ,    0 ,    0 ,    0 ,    0 ,    0 ,   76 ,    0 ,    8 ,    0 ,   23 ,    8 ,    0 ,   47 ,   99 ,   74 ,  173 ,   96 ,  103 ,   14 ,  119 
E: 000000.046617 64 01 83 84 7e 81 00 00 1d 08 00 00 00 5c fb be d8 fc ff f3 ff 05 00 b2 ff 81 20 6b 05 44 60 b7 28 0e 80 00 00 00 80 00 00 00 00 00 09 00 00 00 00 00 4c 00 08 00 17 08 00 2f 63 4a ad 60 67 0e 77
# ReportID: 1 / X:  131 | Y:  132 | Z:  126 | Rz:  129 | Rx:    0 | Ry:    0 | 0xff000020:   30 | Hat switch:   8 | Button: 0  0  0  0  0  0  0  0  0  0  0  0  0  0  0 | 0xff000021: 0 , 0 , 0 , 0 , 0 , 0 , 0 , 0 , 0 , 0 , 0 , 0 , 0 | 0xff000022:   93 ,  251 ,  190 ,  216 ,  250 ,  255 ,  246 ,  255 ,    6 ,    0 ,  165 ,  255 ,  118 ,   32 ,  116 ,    5 ,   67 ,  107 ,  183 ,   40 ,   14 ,  128 ,    0 ,    0 ,    0 ,  128 ,    0 ,    0 ,    0 ,    0 ,    0 ,    9 ,    0 ,    0 ,    0 ,    0 ,    0 ,   76 ,    0 ,    8 ,    0 ,   23 ,    8 ,    0 ,  163 ,  105 ,   61 ,  249 ,   53 ,   35 ,   77 ,  199 
E: 000000.047521 64 01 83 84 7e 81 00 00 1e 08 00 00 00 5d fb be d8 fa ff f6 ff 06 00 a5 ff 76 20 74 05 43 6b b7 28 0e 80 00 00 00 80 00 00 00 00 00 09 00 00 00 00 00 4c 00 08 00 17 08 00 a3 69 3d f9 35 23 4d c7
# ReportID: 1 / X:  131 | Y:  132 | Z:  126 | Rz:  129 | Rx:    0 | Ry:    0 | 0xff000020:   31 | Hat switch:   8 | Button: 0  0  0  0  0  0  0  0  0  0  0  0  0  0  0 | 0xff000021: 0 , 0 , 0 , 0 , 0 , 0 , 0 , 0 , 0 , 0 , 0 , 0 , 0 | 0xff000022:   94 ,  251 ,  190 ,  216 ,  251 ,  255 ,  247 ,  255 ,    7 ,    0 ,  154 ,  255 ,  107 ,   32 ,  127 ,    5 ,   67 ,  118 ,  183 ,   40 ,   14 ,  128 ,    0 ,    0 ,    0 ,  128 ,    0 ,    0 ,    0 ,    0 ,    0 ,    9 ,    0 ,    0 ,    0 ,    0 ,    0 ,   76 ,    0 ,    8 ,    0 ,   23 ,    8 ,    0 ,  188 ,  215 ,  233 ,  181 ,  176 ,  191 ,   12 ,   19 
E: 000000.048606 64 01 83 84 7e 81 00 00 1f 08 00 00 00 5e fb be d8 fb ff f7 ff 07 00 9a ff 6b 20 7f 05 43 76 b7 28 0e 80 00 00 00 80 00 00 00 00 00 09 00 00 00 00 00 4c 00 08 00 17 08 00 bc d7 e9 b5 b0 bf 0c 13
# ReportID: 1 / X:  131 | Y:  132 | Z:  126 | Rz:  129 | Rx:    0 | Ry:    0 | 0xff000020:   32 | Hat switch:   8 | Button: 0  0  0  0  0  0  0  0  0  0  0  0  0  0  0 | 0xff000021: 0 , 0 , 0 , 0 , 0 , 0 , 0 , 0 , 0 , 0 , 0 , 0 , 0 | 0xff000022:   95 ,  251 ,  190 ,  216 ,  250 ,  255 ,  247 ,  255 ,    6 ,    0 ,  153 ,  255 ,   76 ,   32 ,  128 ,    5 ,   66 ,  129 ,  183 ,   40 ,   14 ,  128 ,    0 ,    0 ,    0 ,  128 ,    0 ,    0 ,    0 ,    0 ,    0 ,    9 ,    0 ,    0 ,    0 ,    0 ,    0 ,   76 ,    0 ,    8 ,    0 ,   23 ,    8 ,    0 ,   72 ,   71 ,   65 ,   88 ,   27 ,  147 ,   83 ,  142 
E: 000000.049652 64 01 83 84 7e 81 00 00 20 08 00 00 00 5f fb be d8 fa ff f7 ff 06 00 99 ff 4c 20 80 05 42 81 b7 28 0e 80 00 00 00 80 00 00 00 00 00 09 00 00 00 00 00 4c 00 08 00 17 08 00 48 47 41 58 1b 93 53 8e
# ReportID: 1 / X:  131 | Y:  132 | Z:  126 | Rz:  129 | Rx:    0 | Ry:    0 | 0xff000020:   33 | Hat switch:   8 | Button: 0  0  0  0  0  0  0  0  0  0  0  0  0  0  0 | 0xff000021: 0 , 0 , 0 , 0 , 0 , 0 , 0 , 0 , 0 , 0 , 0 , 0 , 0 | 0xff000022:   96 ,  251 ,  190 ,  216 ,  251 ,  255 ,  244 ,  255 ,    4 ,    0 ,  143 ,  255 ,   60 ,   32 ,  149 ,    5 ,   66 ,  140 ,  183 ,   40 ,   14 ,  128 ,    0 ,    0 ,    0 ,  128 ,    0 ,    0 ,    0 ,    0 ,    0 ,    9 ,    0 ,    0 ,    0 ,    0 ,    0 ,   76 ,    0 ,    8 ,    0 ,   23 ,    8 ,    0 ,   20 ,  245 ,   63 ,   47 ,  196 ,  194 ,  136 ,   54 
E: 000000.050706 64 01 83 84 7e 81 00 00 21 08 00 00 00 60 fb be d8 fb ff f4 ff 04 00 8f ff 3c 20 95 05 42 8c b7 28 0e 80 00 00 00 80 00 00 00 00 00 09 00 00 00 00 00 4c 00 08 00 17 08 00 14 f5 3f 2f c4 c2 88 36
# ReportID: 1 / X:  131 | Y:  132 | Z:  126 | Rz:  129 | Rx:    0 | Ry:    0 | 0xff000020:   34 | Hat switch:   8 | Button: 0  0  0  0  0  0  0  0  0  0  0  0  0  0  0 | 0xff000021: 0 , 0 , 0 , 0 , 0 , 0 , 0 , 0 , 0 , 0 , 0 , 0 , 0 | 0xff000022:   97 ,  251 ,  190 ,  216 ,  251 ,  255 ,  244 ,  255 ,    4 ,    0 ,  157 ,  255 ,   37 ,   32 ,  156 ,    5 ,  236 ,  154 ,  183 ,   40 ,   14 ,  128 ,    0 ,    0 ,    0 ,  128 ,    0 ,    0 ,    0 ,    0 ,    0 ,    9 ,    0 ,    0 ,    0 ,    0 ,    0 ,   76 ,    0 ,    8 ,    0 ,   23 ,    8 ,    0 ,  197 ,  146 ,  151 ,  187 ,  118 ,  106 ,   31 ,  150 
E: 000000.051890 64 01 83 84 7e 81 00 00 22 08 00 00 00 61 fb be d8 fb ff f4 ff 04 00 9d ff 25 20 9c 05 ec 9a b7 28 0e 80 00 00 00 80 00 00 00 00 00 09 00 00 00 00 00 4c 00 08 00 17 08 00 c5 92 97 bb 76 6a 1f 96
# ReportID: 1 / X:  131 | Y:  132 | Z:  126 | Rz:  129 | Rx:    0 | Ry:    0 | 0xff000020:   35 | Hat switch:   8 | Button: 0  0  0  0  0  0  0  0  0  0  0  0  0  0  0 | 0xff000021: 0 , 0 , 0 , 0 , 0 , 0 , 0 , 0 , 0 , 0 , 0 , 0 , 0 | 0xff000022:   98 ,  251 ,  190 ,  216 ,  252 ,  255 ,  243 ,  255 ,    6 ,    0 ,  155 ,  255 ,   31 ,   32 ,  147 ,    5 ,  235 ,  165 ,  183 ,   40 ,   14 ,  128 ,    0 ,    0 ,    0 ,  128 ,    0 ,    0 ,    0 ,    0 ,    0 ,    9 ,    0 ,    0 ,    0 ,    0 ,    0 ,   76 ,    0 ,    8 ,    0 ,   23 ,    8 ,    0 ,  130 ,   68 ,  205 ,  160 ,  133 ,   63 ,   29 ,  250 
E: 000000.052760 64 01 83 84 7e 81 00 00 23 08 00 00 00 62 fb be d8 fc ff f3 ff 06 00 9b ff 1f 20 93 05 eb a5 b7 28 0e 80 00 00 00 80 00 00 00 00 00 09 00 00 00 00 00 4c 00 08 00 17 08 00 82 44 cd a0 85 3f 1d fa
# ReportID: 1 / X:  131 | Y:  132 | Z:  126 | Rz:  129 | Rx:    0 | Ry:    0 | 0xff000020:   36 | Hat switch:   8 | Button: 0  0  0  0  0  0  0  0  0  0  0  0  0  0  0 | 0xff000021: 0 , 0 , 0 , 0 , 0 , 0 , 0 , 0 , 0 , 0 , 0 , 0 , 0 | 0xff000022:   99 ,  251 ,  190 ,  216 ,  250 ,  255 ,  244 ,  255 ,    6 ,    0 ,  156 ,  255 ,   52 ,   32 ,  149 ,    5 ,  235 ,  176 ,  183 ,   40 ,   14 ,  128 ,    0 ,    0 ,    0 ,  128 ,    0 ,    0 ,    0 ,    0 ,    0 ,    9 ,    0 ,    0 ,    0 ,    0 ,    0 ,   76 ,    0 ,    8 ,    0 ,   23 ,    8 ,    0 ,   72 ,   80 ,  159 ,  165 ,  145 ,  173 ,  149 ,  175 
E: 000000.053791 64 01 83 84 7e 81 00 00 24 08 00 00 00 63 fb be d8 fa ff f4 ff 06 00 9c ff 34 20 95 05 eb b0 b7 28 0e 80 00 00 00 80 00 00 00 00 00 09 00 00 00 00 00 4c 00 08 00 17 08 00 48 50 9f a5 91 ad 95 af
# ReportID: 1 / X:  131 | Y:  132 | Z:  126 | Rz:  129 | Rx:    0 | Ry:    0 | 0xff000020:   37 | Hat switch:   8 | Button: 0  0  0  0  0  0  0  0  0  0  0  0  0  0  0 | 0xff000021: 0 , 0 , 0 , 0 , 0 , 0 , 0 , 0 , 0 , 0 , 0 , 0 , 0 | 0xff000022:  100 ,  251 ,  190 ,  216 ,  251 ,  255 ,  246 ,  255 ,    6 ,    0 ,  152 ,  255 ,   57 ,   32 ,  157 ,    5 ,  234 ,  187 ,  183 ,   40 ,   14 ,  128 ,    0 ,    0 ,    0 ,  128 ,    0 ,    0 ,    0 ,    0 ,    0 ,    9 ,    0 ,    0 ,    0 ,    0 ,    0 ,   76 ,    0 ,    8 ,    0 ,   23 ,    8 ,    0 ,   21 ,   22 ,    8 ,  167 ,  135 ,  113 ,  148 ,  169 
E: 000000.055167 64 01 83 84 7e 81 00 00 25 08 00 00 00 64 fb be d8 fb ff f6 ff 06 00 98 ff 39 20 9d 05 ea bb b7 28 0e 80 00 00 00 80 00 00 00 00 00 09 00 00 00 00 00 4c 00 08 00 17 08 00 15 16 08 a7 87 71 94 a9
# ReportID: 1 / X:  131 | Y:  132 | Z:  126 | Rz:  129 | Rx:    0 | Ry:    0 | 0xff000020:   38 | Hat switch:   8 | Button: 0  0  0  0  0  0  0  0  0  0  0  0  0  0  0 | 0xff000021: 0 , 0 , 0 , 0 , 0 , 0 , 0 , 0 , 0 , 0 , 0 , 0 , 0 | 0xff000022:  101 ,  251 ,  190 ,  216 ,  249 ,  255 ,  245 ,  255 ,    6 ,    0 ,  164 ,  255 ,   72 ,   32 ,  134 ,    5 ,  234 ,  198 ,  183 ,   40 ,   14 ,  128 ,    0 ,    0 ,    0 ,  128 ,    0 ,    0 ,    0 ,    0 ,    0 ,    9 ,    0 ,    0 ,    0 ,    0 ,    0 ,   76 ,    0 ,    8 ,    0 ,   23 ,    8 ,    0 ,  138 ,  169 ,  130 ,  253 ,   29 ,   26 ,   40 ,  137 
E: 000000.056523 64 01 83 84 7e 81 00 00 26 08 00 00 00 65 fb be d8 f9 ff f5 ff 06 00 a4 ff 48 20 86 05 ea c6 b7 28 0e 80 00 00 00 80 00 00 00 00 00 09 00 00 00 00 00 4c 00 08 00 17 08 00 8a a9 82 fd 1d 1a 28 89
# ReportID: 1 / X:  131 | Y:  132 | Z:  126 | Rz:  129 | Rx:    0 | Ry:    0 | 0xff000020:   39 | Hat switch:   8 | Button: 0  0  0  0  0  0  0  0  0  0  0  0  0  0  0 | 0xff000021: 0 , 0 , 0 , 0 , 0 , 0 , 0 , 0 , 0 , 0 , 0 , 0 , 0 | 0xff000022:  102 ,  251 ,  190 ,  216 ,  251 ,  255 ,  245 ,  255 ,    6 ,    0 ,  176 ,  255 ,   88 ,   32 ,  118 ,    5 ,  148 ,  213 ,  183 ,   40 ,   14 ,  128 ,    0 ,    0 ,    0 ,  128 ,    0 ,    0 ,    0 ,    0 ,    0 ,    9 ,    0 ,    0 ,    0 ,    0 ,    0 ,   76 ,    0 ,    8 ,    0 ,   23 ,    8 ,    0 ,   19 ,  180 ,  248 ,   41 ,  150 ,  233 ,  215 ,  140 
E: 000000.057830 64 01 83 84 7e 81 00 00 27 08 00 00 00 66 fb be d8 fb ff f5 ff 06 00 b0 ff 58 20 76 05 94 d5 b7 28 0e 80 00 00 00 80 00 00 00 00 00 09 00 00 00 00 00 4c 00 08 00 17 08 00 13 b4 f8 29 96 e9 d7 8c
# ReportID: 1 / X:  131 | Y:  132 | Z:  126 | Rz:  129 | Rx:    0 | Ry:    0 | 0xff000020:   40 | Hat switch:   8 | Button: 0  0  0  0  0  0  0  0  0  0  0  0  0  0  0 | 0xff000021: 0 , 0 , 0 , 0 , 0 , 0 , 0 , 0 , 0 , 0 , 0 , 0 , 0 | 0xff000022:  103 ,  251 ,  190 ,  216 ,  251 ,  255 ,  247 ,  255 ,    4 ,    0 ,  182 ,  255 ,  100 ,   32 ,  116 ,    5 ,  148 ,  224 ,  183 ,   40 ,   14 ,  128 ,    0 ,    0 ,    0 ,  128 ,    0 ,    0 ,    0 ,    0 ,    0 ,    9 ,    0 ,    0 ,    0 ,    0 ,    0 ,   76 ,    0 ,    8 ,    0 ,   23 ,    8 ,    0 ,  159 ,  133 ,  172 ,   85 ,  198 ,    1 ,  191 ,  183 
E: 000000.058946 64 01 83 84 7e 81 00 00 28 08 00 00 00 67 fb be d8 fb ff f7 ff 04 00 b6 ff 64 20 74 05 94 e0 b7 28 0e 80 00 00 00 80 00 00 00 00 00 09 00 00 00 00 00 4c 00 08 00 17 08 00 9f 85 ac 55 c6 01 bf b7
# ReportID: 1 / X:  131 | Y:  132 | Z:  126 | Rz:  129 | Rx:    0 | Ry:    0 | 0xff000020:   41 | Hat switch:   8 | Button: 0  0  0  0  0  0  0  0  0  0  0  0  0  0  0 | 0xff000021: 0 , 0 , 0 , 0 , 0 , 0 , 0 , 0 , 0 , 0 , 0 , 0 , 0 | 0xff000022:  104 ,  251 ,  190 ,  216 ,  251 ,  255 ,  250 ,  255 ,    3 ,    0 ,  174 ,  255 ,   98 ,   32 ,  121 ,    5 ,  148 ,  235 ,  183 ,   40 ,   14 ,  128 ,    0 ,    0 ,    0 ,  128 ,    0 ,    0 ,    0 ,    0 ,    0 ,    9 ,    0 ,    0 ,    0 ,    0 ,    0 ,   76 ,    0 ,    8 ,    0 ,   23 ,    8 ,    0 ,  252 ,  113 ,  252 ,   86 ,   11 ,   61 ,  117 ,   11 
E: 000000.060001 64 01 83 84 7e 81 00 00 29 08 00 00 00 68 fb be d8 fb ff fa ff 03 00 ae ff 62 20 79 05 94 eb b7 28 0e 80 00 00 00 80 00 00 00 00 00 09 00 00 00 00 00 4c 00 08 00 17 08 00 fc 71 fc 56 0b 3d 75 0b
# ReportID: 1 / X:  131 | Y:  132 | Z:  126 | Rz:  129 | Rx:    0 | Ry:    0 | 0xff000020:   42 | Hat switch:   8 | Button: 0  0  0  0  0  0  0  0  0  0  0  0  0  0  0 | 0xff000021: 0 , 0 , 0 , 0 , 0 , 0 , 0 , 0 , 0 , 0 , 0 , 0 , 0 | 0xff000022:  105 ,  251 ,  190 ,  216 ,  251 ,  255 ,  247 ,  255 ,    7 ,    0 ,  179 ,  255 ,  107 ,   32 ,  120 ,    5 ,  147 ,  246 ,  183 ,   40 ,   14 ,  128 ,    0 ,    0 ,    0 ,  128 ,    0 ,    0 ,    0 ,    0 ,    0 ,    9 ,    0 ,    0 ,    0 ,    0 ,    0 ,   76 ,    0 ,    8 ,    0 ,   23 ,    8 ,    0 ,   83 ,  118 ,    7 ,  117 ,  255 ,   60 ,  245 ,   65 
E: 000000.061177 64 01 83 84 7e 81 00 00 2a 08 00 00 00 69 fb be d8 fb ff f7 ff 07 00 b3 ff 6b 20 78 05 93 f6 b7 28 0e 80 00 00 00 80 00 00 00 00 00 09 00 00 00 00 00 4c 00 08 00 17 08 00 53 76 07 75 ff 3c f5 41
# ReportID: 1 / X:  131 | Y:  132 | Z:  126 | Rz:  129 | Rx:    0 | Ry:    0 | 0xff000020:   43 | Hat switch:   8 | Button: 0  0  0  0  0  0  0  0  0  0  0  0  0  0  0 | 0xff000021: 0 , 0 , 0 , 0 , 0 , 0 , 0 , 0 , 0 , 0 , 0 , 0 , 0 | 0xff000022:  106 ,  251 ,  190 ,  216 ,  252 ,  255 ,  247 ,  255 ,    4 ,    0 ,  180 ,  255 ,  103 ,   32 ,  121 ,    5 ,  147 ,    1 ,  184 ,   40 ,   14 ,  128 ,    0 ,    0 ,    0 ,  128 ,    0 ,    0 ,    0 ,    0 ,    0 ,    9 ,    0 ,    0 ,    0 ,    0 ,    0 ,   76 ,    0 ,    8 ,    0 ,   23 ,    8 ,    0 ,  165 ,  154 ,   38 ,  193 ,   18 ,   16 ,  163 ,   93 
E: 000000.062311 64 01 83 84 7e 81 00 00 2b 08 00 00 00 6a fb be d8 fc ff f7 ff 04 00 b4 ff 67 20 79 05 93 01 b8 28 0e 80 00 00 00 80 00 00 00 00 00 09 00 00 00 00 00 4c 00 08 00 17 08 00 a5 9a 26 c1 12 10 a3 5d
# ReportID: 1 / X:  131 | Y:  132 | Z:  126 | Rz:  129 | Rx:    0 | Ry:    0 | 0xff000020:   44 | Hat switch:   8 | Button: 0  0  0  0  0  0  0  0  0  0  0  0  0  0  0 | 0xff000021: 0 , 0 , 0 , 0 , 0 , 0 , 0 , 0 , 0 , 0 , 0 , 0 , 0 | 0xff000022:  107 ,  251 ,  190 ,  216 ,  250 ,  255 ,  243 ,  255 ,    3 ,    0 ,  181 ,  255 ,   54 ,   32 ,  136 ,    5 ,   61 ,   16 ,  184 ,   40 ,   14 ,  128 ,    0 ,    0 ,    0 ,  128 ,    0 ,    0 ,    0 ,    0 ,    0 ,    9 ,    0 ,    0 ,    0 ,    0 ,    0 ,   76 ,    0 ,    8 ,    0 ,   23 ,    8 ,    0 ,  200 ,   80 ,   87 ,   51 ,  213 ,  170 ,  189 ,   31 
E: 000000.063412 64 01 83 84 7e 81 00 00 2c 08 00 00 00 6b fb be d8 fa ff f3 ff 03 00 b5 ff 36 20 88 05 3d 10 b8 28 0e 80 00 00 00 80 00 00 00 00 00 09 00 00 00 00 00 4c 00 08 00 17 08 00 c8 50 57 33 d5 aa bd 1f
# ReportID: 1 / X:  131 | Y:  132 | Z:  125 | Rz:  129 | Rx:    0 | Ry:    0 | 0xff000020:   45 | Hat switch:   8 | Button: 0  0  0  0  0  0  0  0  0  0  0  0  0  0  0 | 0xff000021: 0 , 0 , 0 , 0 , 0 , 0 , 0 , 0 , 0 , 0 , 0 , 0 , 0 | 0xff000022:  108 ,  251 ,  190 ,  216 ,  252 ,  255 ,  246 ,  255 ,    5 ,    0 ,  179 ,  255 ,   37 ,   32 ,  136 ,    5 ,   60 ,   27 ,  184 ,   40 ,   14 ,  128 ,    0 ,    0 ,    0 ,  128 ,    0 ,    0 ,    0 ,    0 ,    0 ,    9 ,    0 ,    0 ,    0 ,    0 ,    0 ,   76 ,    0 ,    8 ,    0 ,   23 ,    8 ,    0 ,  101 ,  197 ,   10 ,  130 ,  159 ,  162 ,  157 ,   57 
E: 000000.064463 64 01 83 84 7d 81 00 00 2d 08 00 00 00 6c fb be d8 fc ff f6 ff 05 00 b3 ff 25 20 88 05 3c 1b b8 28 0e 80 00 00 00 80 00 00 00 00 00 09 00 00 00 00 00 4c 00 08 00 17 08 00 65 c5 0a 82 9f a2 9d 39
# ReportID: 1 / X:  131 | Y:  132 | Z:  126 | Rz:  129 | Rx:    0 | Ry:    0 | 0xff000020:   46 | Hat switch:   8 | Button: 0  0  0  0  0  0  0  0  0  0  0  0  0  0  0 | 0xff000021: 0 , 0 , 0 , 0 , 0 , 0 , 0 , 0 , 0 , 0 , 0 , 0 , 0 | 0xff000022:  109 ,  251 ,  190 ,  216 ,  252 ,  255 ,  245 ,  255 ,    6 ,    0 ,  178 ,  255 ,   21 ,   32 ,  167 ,    5 ,   60 ,   38 ,  184 ,   40 ,   14 ,  128 ,    0 ,    0 ,    0 ,  128 ,    0 ,    0 ,    0 ,    0 ,    0 ,    9 ,    0 ,    0 ,    0 ,    0 ,    0 ,   76 ,    0 ,    8 ,    0 ,   23 ,    8 ,    0 ,   90 ,  208 ,  199 ,  205 ,  227 ,   17 ,   45 ,  231 
E: 000000.065610 64 01 83 84 7e 81 00 00 2e 08 00 00 00 6d fb be d8 fc ff f5 ff 06 00 b2 ff 15 20 a7 05 3c 26 b8 28 0e 80 00 00 00 80 00 00 00 00 00 09 00 00 00 00 00 4c 00 08 00 17 08 00 5a d0 c7 cd e3 11 2d e7
# ReportID: 1 / X:  131 | Y:  132 | Z:  126 | Rz:  129 | Rx:    0 | Ry:    0 | 0xff000020:   47 | Hat switch:   8 | Button: 0  0  0  0  0  0  0  0  0  0  0  0  0  0  0 | 0xff000021: 0 , 0 , 0 , 0 , 0 , 0 , 0 , 0 , 0 , 0 , 0 , 0 , 0 | 0xff000022:  110 ,  251 ,  190 ,  216 ,  251 ,  255 ,  248 ,  255 ,    8 ,    0 ,  177 ,  255 ,   31 ,   32 ,  176 ,    5 ,   59 ,   49 ,  184 ,   40 ,   14 ,  128 ,    0 ,    0 ,    0 ,  128 ,    0 ,    0 ,    0 ,    0 ,    0 ,    9 ,    0 ,    0 ,    0 ,    0 ,    0 ,   76 ,    0 ,    8 ,    0 ,   23 ,    8 ,    0 ,  165 ,  140 ,  145 ,   59 ,  235 ,   45 ,  244 ,  246 
E: 000000.066877 64 01 83 84 7e 81 00 00 2f 08 00 00 00 6e fb be d8 fb ff f8 ff 08 00 b1 ff 1f 20 b0 05 3b 31 b8 28 0e 80 00 00 00 80 00 00 00 00 00 09 00 00 00 00 00 4c 00 08 00 17 08 00 a5 8c 91 3b eb 2d f4 f6
# ReportID: 1 / X:  131 | Y:  132 | Z:  126 | Rz:  129 | Rx:    0 | Ry:    0 | 0xff000020:   48 | Hat switch:   8 | Button: 0  0  0  0  0  0  0  0  0  0  0  0  0  0  0 | 0xff000021: 0 , 0 , 0 , 0 , 0 , 0 , 0 , 0 , 0 , 0 , 0 , 0 , 0 | 0xff000022:  111 ,  251 ,  190 ,  216 ,  251 ,  255 ,  244 ,  255 ,    7 ,    0 ,  169 ,  255 ,   65 ,   32 ,  157 ,    5 ,   59 ,   60 ,  184 ,   40 ,   14 ,  128 ,    0 ,    0 ,    0 ,  128 ,    0 ,    0 ,    0 ,    0 ,    0 ,    9 ,    0 ,    0 ,    0 ,    0 ,    0 ,   76 ,    0 ,    8 ,    0 ,   23 ,    8 ,    0 ,  118 ,  216 ,  236 ,  129 ,   41 ,  216 ,  147 ,  245 
E: 000000.068106 64 01 83 84 7e 81 00 00 30 08 00 00 00 6f fb be d8 fb ff f4 ff 07 00 a9 ff 41 20 9d 05 3b 3c b8 28 0e 80 00 00 00 80 00 00 00 00 00 09 00 00 00 00 00 4c 00 08 00 17 08 00 76 d8 ec 81 29 d8 93 f5
# ReportID: 1 / X:  131 | Y:  132 | Z:  126 | Rz:  129 | Rx:    0 | Ry:    0 | 0xff000020:   49 | Hat switch:   8 | Button: 0  0  0  0  0  0  0  0  0  0  0  0  0  0  0 | 0xff000021: 0 , 0 , 0 , 0 , 0 , 0 , 0 , 0 , 0 , 0 , 0 , 0 , 0 | 0xff000022:  112 ,  251 ,  190 ,  216 ,  251 ,  255 ,  245 ,  255 ,    7 ,    0 ,  163 ,  255 ,   67 ,   32 ,  136 ,    5 ,  229 ,   74 ,  184 ,   40 ,   14 ,  128 ,    0 ,    0 ,    0 ,  128 ,    0 ,    0 ,    0 ,    0 ,    0 ,    9 ,    0 ,    0 ,    0 ,    0 ,    0 ,   76 ,    0 ,    8 ,    0 ,   23 ,    8 ,    0 ,  154 ,  238 ,  144 ,   59 ,  218 ,   99 ,   14 ,  108 
E: 000000.069325 64 01 83 84 7e 81 00 00 31 08 00 00 00 70 fb be d8 fb ff f5 ff 07 00 a3 ff 43 20 88 05 e5 4a b8 28 0e 80 00 00 00 80 00 00 00 00 00 09 00 00 00 00 00 4c 00 08 00 17 08 00 9a ee 90 3b da 63 0e 6c
# ReportID: 1 / X:  131 | Y:  132 | Z:  126 | Rz:  129 | Rx:    0 | Ry:    0 | 0xff000020:   50 | Hat switch:   8 | Button: 0  0  0  0  0  0  0  0  0  0  0  0  0  0  0 | 0xff000021: 0 , 0 , 0 , 0 , 0 , 0 , 0 , 0 , 0 , 0 , 0 , 0 , 0 | 0xff000022:  113 ,  251 ,  190 ,  216 ,  252 ,  255 ,  244 ,  255 ,    7 ,    0 ,  163 ,  255 ,  101 ,   32 ,  116 ,    5 ,  228 ,   85 ,  184 ,   40 ,   14 ,  128 ,    0 ,    0 ,    0 ,  128 ,    0 ,    0 ,    0 ,    0 ,    0 ,    9 ,    0 ,    0 ,    0 ,    0 ,    0 ,   76 ,    0 ,    8 ,    0 ,   23 ,    8 ,    0 ,   83 ,  197 ,   89 ,  110 ,   93 ,  107 ,  194 ,  208 
E: 000000.070488 64 01 83 84 7e 81 00 00 32 08 00 00 00 71 fb be d8 fc ff f4 ff 07 00 a3 ff 65 20 74 05 e4 55 b8 28 0e 80 00 00 00 80 00 00 00 00 00 09 00 00 00 00 00 4c 00 08 00 17 08 00 53 c5 59 6e 5d 6b c2 d0
# ReportID: 1 / X:  131 | Y:  132 | Z:  126 | Rz:  129 | Rx:    0 | Ry:    0 | 0xff000020:   51 | Hat switch:   8 | Button: 0  0  0  0  0  0  0  0  0  0  0  0  0  0  0 | 0xff000021: 0 , 0 , 0 , 0 , 0 , 0 , 0 , 0 , 0 , 0 , 0 , 0 , 0 | 0xff000022:  114 ,  251 ,  190 ,  216 ,  251 ,  255 ,  247 ,  255 ,    7 ,    0 ,  155 ,  255 ,  117 ,   32 ,  106 ,    5 ,  228 ,   96 ,  184 ,   40 ,   14 ,  128 ,    0 ,    0 ,    0 ,  128 ,    0 ,    0 ,    0 ,    0 ,    0 ,    9 ,    0 ,    0 ,    0 ,    0 ,    0 ,   76 ,    0 ,    8 ,    0 ,   23 ,    8 ,    0 ,   57 ,   53 ,  175 ,  136 ,   29 ,  170 ,  225 ,  249 
E: 000000.071766 64 01 83 84 7e 81 00 00 33 08 00 00 00 72 fb be d8 fb ff f7 ff 07 00 9b ff 75 20 6a 05 e4 60 b8 28 0e 80 00 00 00 80 00 00 00 00 00 09 00 00 00 00 00 4c 00 08 00 17 08 00 39 35 af 88 1d aa e1 f9
# ReportID: 1 / X:  131 | Y:  132 | Z:  126 | Rz:  129 | Rx:    0 | Ry:    0 | 0xff000020:   52 | Hat switch:   8 | Button: 0  0  0  0  0  0  0  0  0  0  0  0  0  0  0 | 0xff000021: 0 , 0 , 0 , 0 , 0 , 0 , 0 , 0 , 0 , 0 , 0 , 0 , 0 | 0xff000022:  115 ,  251 ,  190 ,  216 ,  251 ,  255 ,  248 ,  255 ,    7 ,    0 ,  167 ,  255 ,  112 ,   32 ,  103 ,    5 ,  227 ,  107 ,  184 ,   40 ,   14 ,  128 ,    0 ,    0 ,    0 ,  128 ,    0 ,    0 ,    0 ,    0 ,    0 ,    9 ,    0 ,    0 ,    0 ,    0 ,    0 ,   76 ,    0 ,    8 ,    0 ,   23 ,    8 ,    0 ,  143 ,  163 ,  189 ,  247 ,   25 ,  131 ,  234 ,  244 
E: 000000.072884 64 01 83 84 7e 81 00 00 34 08 00 00 00 73 fb be d8 fb ff f8 ff 07 00 a7 ff 70 20 67 05 e3 6b b8 28 0e 80 00 00 00 80 00 00 00 00 00 09 00 00 00 00 00 4c 00 08 00 17 08 00 8f a3 bd f7 19 83 ea f4
# ReportID: 1 / X:  131 | Y:  132 | Z:  126 | Rz:  129 | Rx:    0 | Ry:    0 | 0xff000020:   53 | Hat switch:   8 | Button: 0  0  0  0  0  0  0  0  0  0  0  0  0  0  0 | 0xff000021: 0 , 0 , 0 , 0 , 0 , 0 , 0 , 0 , 0 , 0 , 0 , 0 , 0 | 0xff000022:  116 ,  251 ,  190 ,  216 ,  251 ,  255 ,  244 ,  255 ,    5 ,    0 ,  181 ,  255 ,  137 ,   32 ,  106 ,    5 ,  227 ,  118 ,  184 ,   40 ,   14 ,  128 ,    0 ,    0 ,    0 ,  128 ,    0 ,    0 ,    0 ,    0 ,    0 ,    9 ,    0 ,    0 ,    0 ,    0 ,    0 ,   76 ,    0 ,    8 ,    0 ,   23 ,    8 ,    0 ,   24 ,   68 ,  102 ,  235 ,   99 ,  188 ,  246 ,  113 
E: 000000.073958 64 01 83 84 7e 81 00 00 35 08 00 00 00 74 fb be d8 fb ff f4 ff 05 00 b5 ff 89 20 6a 05 e3 76 b8 28 0e 80 00 00 00 80 00 00 00 00 00 09 00 00 00 00 00 4c 00 08 00 17 08 00 18 44 66 eb 63 bc f6 71
# ReportID: 1 / X:  131 | Y:  132 | Z:  126 | Rz:  129 | Rx:    0 | Ry:    0 | 0xff000020:   54 | Hat switch:   8 | Button: 0  0  0  0  0  0  0  0  0  0  0  0  0  0  0 | 0xff000021: 0 , 0 , 0 , 0 , 0 , 0 , 0 , 0 , 0 , 0 , 0 , 0 , 0 | 0xff000022:  117 ,  251 ,  190 ,  216 ,  250 ,  255 ,  246 ,  255 ,    5 ,    0 ,  208 ,  255 ,  150 ,   32 ,  128 ,    5 ,  141 ,  133 ,  184 ,   40 ,   14 ,  128 ,    0 ,    0 ,    0 ,  128 ,    0 ,    0 ,    0 ,    0 ,    0 ,    9 ,    0 ,    0 ,    0 ,    0 ,    0 ,   76 ,    0 ,    8 ,    0 ,   23 ,    8 ,    0 ,  211 ,   42 ,  189 ,  134 ,  190 ,  236 ,  221 ,    5 
E: 000000.075106 64 01 83 84 7e 81 00 00 36 08 00 00 00 75 fb be d8 fa ff f6 ff 05 00 d0 ff 96 20 80 05 8d 85 b8 28 0e 80 00 00 00 80 00 00 00 00 00 09 00 00 00 00 00 4c 00 08 00 17 08 00 d3 2a bd 86 be ec dd 05
# ReportID: 1 / X:  131 | Y:  132 | Z:  126 | Rz:  129 | Rx:    0 | Ry:    0 | 0xff000020:   55 | Hat switch:   8 | Button: 0  0  0  0  0  0  0  0  0  0  0  0  0  0  0 | 0xff000021: 0 , 0 , 0 , 0 , 0 , 0 , 0 , 0 , 0 , 0 , 0 , 0 , 0 | 0xff000022:  118 ,  251 ,  190 ,  216 ,  248 ,  255 ,  247 ,  255 ,    7 ,    0 ,  209 ,  255 ,  147 ,   32 ,  154 ,    5 ,  141 ,  144 ,  184 ,   40 ,   14 ,  128 ,    0 ,    0 ,    0 ,  128 ,    0 ,    0 ,    0 ,    0 ,    0 ,    9 ,    0 ,    0 ,    0 ,    0 ,    0 ,   76 ,    0 ,    8 ,    0 ,   23 ,    8 ,    0 ,  174 ,    4 ,   91 ,  121 ,  161 ,  143 ,  155 ,  126 
E: 000000.076267 64 01 83 84 7e 81 00 00 37 08 00 00 00 76 fb be d8 f8 ff f7 ff 07 00 d1 ff 93 20 9a 05 8d 90 b8 28 0e 80 00 00 00 80 00 00 00 00 00 09 00 00 00 00 00 4c 00 08 00 17 08 00 ae 04 5b 79 a1 8f 9b 7e
# ReportID: 1 / X:  131 | Y:  132 | Z:  126 | Rz:  129 | Rx:    0 | Ry:    0 | 0xff000020:   56 | Hat switch:   8 | Button: 0  0  0  0  0  0  0  0  0  0  0  0  0  0  0 | 0xff000021: 0 , 0 , 0 , 0 , 0 , 0 , 0 , 0 , 0 , 0 , 0 , 0 , 0 | 0xff000022:  119 ,  251 ,  190 ,  216 ,  247 ,  255 ,  245 ,  255 ,    7 ,    0 ,  206 ,  255 ,  112 ,   32 ,  174 ,    5 ,  141 ,  155 ,  184 ,   40 ,   14 ,  128 ,    0 ,    0 ,    0 ,  128 ,    0 ,    0 ,    0 ,    0 ,    0 ,    9 ,    0 ,    0 ,    0 ,    0 ,    0 ,   76 ,    0 ,    8 ,    0 ,   23 ,    8 ,    0 ,  144 ,  223 ,  180 ,  230 ,   70 ,   48 ,   47 ,  242 
E: 000000.077393 64 01 83 84 7e 81 00 00 38 08 00 00 00 77 fb be d8 f7 ff f5 ff 07 00 ce ff 70 20 ae 05 8d 9b b8 28 0e 80 00 00 00 80 00 00 00 00 00 09 00 00 00 00 00 4c 00 08 00 17 08 00 90 df b4 e6 46 30 2f f2
# ReportID: 1 / X:  131 | Y:  132 | Z:  126 | Rz:  129 | Rx:    0 | Ry:    0 | 0xff000020:   57 | Hat switch:   8 | Button: 0  0  0  0  0  0  0  0  0  0  0  0  0  0  0 | 0xff000021: 0 , 0 , 0 , 0 , 0 , 0 , 0 , 0 , 0 , 0 , 0 , 0 , 0 | 0xff000022:  120 ,  251 ,  190 ,  216 ,  249 ,  255 ,  244 ,  255 ,    7 ,    0 ,  207 ,  255 ,   66 ,   32 ,  168 ,    5 ,  140 ,  166 ,  184 ,   40 ,   14 ,  128 ,    0 ,    0 ,    0 ,  128 ,    0 ,    0 ,    0 ,    0 ,    0 ,    9 ,    0 ,    0 ,    0 ,    0 ,    0 ,   76 ,    0 ,    8 ,    0 ,   23 ,    8 ,    0 ,  246 ,   69 ,  213 ,  195 ,  194 ,   86 ,   11 ,   18 
E: 000000.078496 64 01 83 84 7e 81 00 00 39 08 00 00 00 78 fb be d8 f9 ff f4 ff 07 00 cf ff 42 20 a8 05 8c a6 b8 28 0e 80 00 00 00 80 00 00 00 00 00 09 00 00 00 00 00 4c 00 08 00 17 08 00 f6 45 d5 c3 c2 56 0b 12
# ReportID: 1 / X:  131 | Y:  132 | Z:  126 | Rz:  129 | Rx:    0 | Ry:    0 | 0xff000020:   58 | Hat switch:   8 | Button: 0  0  0  0  0  0  0  0  0  0  0  0  0  0  0 | 0xff000021: 0 , 0 , 0 , 0 , 0 , 0 , 0 , 0 , 0 , 0 , 0 , 0 , 0 | 0xff000022:  121 ,  251 ,  190 ,  216 ,  251 ,  255 ,  245 ,  255 ,    6 ,    0 ,  196 ,  255 ,   27 ,   32 ,  178 ,    5 ,  140 ,  177 ,  184 ,   40 ,   14 ,  128 ,    0 ,    0 ,    0 ,  128 ,    0 ,    0 ,    0 ,    0 ,    0 ,    9 ,    0 ,    0 ,    0 ,    0 ,    0 ,   76 ,    0 ,    8 ,    0 ,   23 ,    8 ,    0 ,   55 ,   23 ,   29 ,  213 ,  117 ,   56 ,  102 ,  199 
E: 000000.079524 64 01 83 84 7e 81 00 00 3a 08 00 00 00 79 fb be d8 fb ff f5 ff 06 00 c4 ff 1b 20 b2 05 8c b1 b8 28 0e 80 00 00 00 80 00 00 00 00 00 09 00 00 00 00 00 4c 00 08 00 17 08 00 37 17 1d d5 75 38 66 c7
# ReportID: 1 / X:  131 | Y:  132 | Z:  126 | Rz:  129 | Rx:    0 | Ry:    0 | 0xff000020:   59 | Hat switch:   8 | Button: 0  0  0  0  0  0  0  0  0  0  0  0  0  0  0 | 0xff000021: 0 , 0 , 0 , 0 , 0 , 0 , 0 , 0 , 0 , 0 , 0 , 0 , 0 | 0xff000022:  122 ,  251 ,  190 ,  216 ,  253 ,  255 ,  247 ,  255 ,    5 ,    0 ,  175 ,  255 ,    4 ,   32 ,  175 ,    5 ,  139 ,  188 ,  184 ,   40 ,   14 ,  128 ,    0 ,    0 ,    0 ,  128 ,    0 ,    0 ,    0 ,    0 ,    0 ,    9 ,    0 ,    0 ,    0 ,    0 ,    0 ,   76 ,    0 ,    8 ,    0 ,   23 ,    8 ,    0 ,    8 ,   81 ,  129 ,  251 ,  227 ,  129 ,   97 ,  171 
E: 000000.080533 64 01 83 84 7e 81 00 00 3b 08 00 00 00 7a fb be d8 fd ff f7 ff 05 00 af ff 04 20 af 05 8b bc b8 28 0e 80 00 00 00 80 00 00 00 00 00 09 00 00 00 00 00 4c 00 08 00 17 08 00 08 51 81 fb e3 81 61 ab
# ReportID: 1 / X:  131 | Y:  132 | Z:  126 | Rz:  129 | Rx:    0 | Ry:    0 | 0xff000020:   60 | Hat switch:   8 | Button: 0  0  0  0  0  0  0  0  0  0  0  0  0  0  0 | 0xff000021: 0 , 0 , 0 , 0 , 0 , 0 , 0 , 0 , 0 , 0 , 0 , 0 , 0 | 0xff000022:  123 ,  251 ,  190 ,  216 ,  254 ,  255 ,  247 ,  255 ,    5 ,    0 ,  175 ,  255 ,   14 ,   32 ,  169 ,    5 ,  139 ,  199 ,  184 ,   40 ,   14 ,  128 ,    0 ,    0 ,    0 ,  128 ,    0 ,    0 ,    0 ,    0 ,    0 ,    9 ,    0 ,    0 ,    0 ,    0 ,    0 ,   76 ,    0 ,    8 ,    0 ,   23 ,    8 ,    0 ,  222 ,  193 ,  212 ,  143 ,    0 ,  183 ,  188 ,  124 
E: 000000.081635 64 01 83 84 7e 81 00 00 3c 08 00 00 00 7b fb be d8 fe ff f7 ff 05 00 af ff 0e 20 a9 05 8b c7 b8 28 0e 80 00 00 00 80 00 00 00 00 00 09 00 00 00 00 00 4c 00 08 00 17 08 00 de c1 d4 8f 00 b7 bc 7c
# ReportID: 1 / X:  131 | Y:  132 | Z:  126 | Rz:  129 | Rx:    0 | Ry:    0 | 0xff000020:   61 | Hat switch:   8 | Button: 0  0  0  0  0  0  0  0  0  0  0  0  0  0  0 | 0xff000021: 0 , 0 , 0 , 0 , 0 , 0 , 0 , 0 , 0 , 0 , 0 , 0 , 0 | 0xff000022:  124 ,  251 ,  190 ,  216 ,  255 ,  255 ,  248 ,  255 ,    3 ,    0 ,  190 ,  255 ,   54 ,   32 ,  157 ,    5 ,   53 ,  214 ,  184 ,   40 ,   14 ,  128 ,    0 ,    0 ,    0 ,  128 ,    0 ,    0 ,    0 ,    0 ,    0 ,    9 ,    0 ,    0 ,    0 ,    0 ,    0 ,   76 ,    0 ,    8 ,    0 ,   23 ,    8 ,    0 ,   72 ,  198 ,  247 ,   67 ,  160 ,  235 ,  165 ,  107 
E: 000000.082680 64 01 83 84 7e 81 00 00 3d 08 00 00 00 7c fb be d8 ff ff f8 ff 03 00 be ff 36 20 9d 05 35 d6 b8 28 0e 80 00 00 00 80 00 00 00 00 00 09 00 00 00 00 00 4c 00 08 00 17 08 00 48 c6 f7 43 a0 eb a5 6b
# ReportID: 1 / X:  131 | Y:  132 | Z:  126 | Rz:  129 | Rx:    0 | Ry:    0 | 0xff000020:   62 | Hat switch:   8 | Button: 0  0  0  0  0  0  0  0  0  0  0  0  0  0  0 | 0xff000021: 0 , 0 , 0 , 0 , 0 , 0 , 0 , 0 , 0 , 0 , 0 , 0 , 0 | 0xff000022:  125 ,  251 ,  190 ,  216 ,  254 ,  255 ,  247 ,  255 ,    5 ,    0 ,  184 ,  255 ,   90 ,   32 ,  134 ,    5 ,   53 ,  225 ,  184 ,   40 ,   14 ,  128 ,    0 ,    0 ,    0 ,  128 ,    0 ,    0 ,    0 ,    0 ,    0 ,    9 ,    0 ,    0 ,    0 ,    0 ,    0 ,   76 ,    0 ,    8 ,    0 ,   23 ,    8 ,    0 ,  193 ,  240 ,   43 ,  183 ,  225 ,  182 ,  242 ,  137 
E: 000000.083668 64 01 83 84 7e 81 00 00 3e 08 00 00 00 7d fb be d8 fe ff f7 ff 05 00 b8 ff 5a 20 86 05 35 e1 b8 28 0e 80 00 00 00 80 00 00 00 00 00 09 00 00 00 00 00 4c 00 08 00 17 08 00 c1 f0 2b b7 e1 b6 f2 89
# ReportID: 1 / X:  131 | Y:  132 | Z:  126 | Rz:  129 | Rx:    0 | Ry:    0 | 0xff000020:   63 | Hat switch:   8 | Button: 0  0  0  0  0  0  0  0  0  0  0  0  0  0  0 | 0xff000021: 0 , 0 , 0 , 0 , 0 , 0 , 0 , 0 , 0 , 0 , 0 , 0 , 0 | 0xff000022:  126 ,  251 ,  190 ,  216 ,  253 ,  255 ,  245 ,  255 ,    7 ,    0 ,  207 ,  255 ,   92 ,   32 ,  125 ,    5 ,   52 ,  236 ,  184 ,   40 ,   14 ,  128 ,    0 ,    0 ,    0 ,  128 ,    0 ,    0 ,    0 ,    0 ,    0 ,    9 ,    0 ,    0 ,    0 ,    0 ,    0 ,   76 ,    0 ,    8 ,    0 ,   23 ,    8 ,    0 ,  123 ,   50 ,  198 ,   48 ,  190 ,  241 ,  217 ,  205 
E: 000000.084611 64 01 83 84 7e 81 00 00 3f 08 00 00 00 7e fb be d8 fd ff f5 ff 07 00 cf ff 5c 20 7d 05 34 ec b8 28 0e 80 00 00 00 80 00 00 00 00 00 09 00 00 00 00 00 4c 00 08 00 17 08 00 7b 32 c6 30 be f1 d9 cd
# ReportID: 1 / X:  131 | Y:  132 | Z:  126 | Rz:  129 | Rx:    0 | Ry:    0 | 0xff000020:   64 | Hat switch:   8 | Button: 0  0  0  0  0  0  0  0  0  0  0  0  0  0  0 | 0xff000021: 0 , 0 , 0 , 0 , 0 , 0 , 0 , 0 , 0 , 0 , 0 , 0 , 0 | 0xff000022:  127 ,  251 ,  190 ,  216 ,  253 ,  255 ,  242 ,  255 ,    8 ,    0 ,  219 ,  255 ,  115 ,   32 ,  136 ,    5 ,   51 ,  247 ,  184 ,   40 ,   14 ,  128 ,    0 ,    0 ,    0 ,  128 ,    0 ,    0 ,    0 ,    0 ,    0 ,    9 ,    0 ,    0 ,    0 ,    0 ,    0 ,   76 ,    0 ,    8 ,    0 ,   23 ,    8 ,    0 ,    2 ,   51 ,   93 ,    8 ,  119 ,  117 ,  223 ,   10 
E: 000000.085650 64 01 83 84 7e 81 00 00 40 08 00 00 00 7f fb be d8 fd ff f2 ff 08 00 db ff 73 20 88 05 33 f7 b8 28 0e 80 00 00 00 80 00 00 00 00 00 09 00 00 00 00 00 4c 00 08 00 17 08 00 02 33 5d 08 77 75 df 0a
# ReportID: 1 / X:  131 | Y:  132 | Z:  125 | Rz:  129 | Rx:    0 | Ry:    0 | 0xff000020:   65 | Hat switch:   8 | Button: 0  0  0  0  0  0  0  0  0  0  0  0  0  0  0 | 0xff000021: 0 , 0 , 0 , 0 , 0 , 0 , 0 , 0 , 0 , 0 , 0 , 0 , 0 | 0xff000022:  128 ,  251 ,  190 ,  216 ,  251 ,  255 ,  245 ,  255 ,    9 ,    0 ,  217 ,  255 ,  119 ,   32 ,  108 ,    5 ,   51 ,    2 ,  185 ,   40 ,   14 ,  128 ,    0 ,    0 ,    0 ,  128 ,    0 ,    0 ,    0 ,    0 ,    0 ,    9 ,    0 ,    0 ,    0 ,    0 ,    0 ,   76 ,    0 ,    8 ,    0 ,   23 ,    8 ,    0 ,  123 ,  163 ,   61 ,  151 ,    2 ,  211 ,  224 ,   49 
E: 000000.086923 64 01 83 84 7d 81 00 00 41 08 00 00 00 80 fb be d8 fb ff f5 ff 09 00 d9 ff 77 20 6c 05 33 02 b9 28 0e 80 00 00 00 80 00 00 00 00 00 09 00 00 00 00 00 4c 00 08 00 17 08 00 7b a3 3d 97 02 d3 e0 31
# ReportID: 1 / X:  131 | Y:  132 | Z:  126 | Rz:  129 | Rx:    0 | Ry:    0 | 0xff000020:   66 | Hat switch:   8 | Button: 0  0  0  0  0  0  0  0  0  0  0  0  0  0  0 | 0xff000021: 0 , 0 , 0 , 0 , 0 , 0 , 0 , 0 , 0 , 0 , 0 , 0 , 0 | 0xff000022:  129 ,  251 ,  190 ,  216 ,  251 ,  255 ,  242 ,  255 ,    7 ,    0 ,  217 ,  255 ,  104 ,   32 ,  115 ,    5 ,  221 ,   16 ,  185 ,   40 ,   14 ,  128 ,    0 ,    0 ,    0 ,  128 ,    0 ,    0 ,    0 ,    0 ,    0 ,    9 ,    0 ,    0 ,    0 ,    0 ,    0 ,   76 ,    0 ,    8 ,    0 ,   23 ,    8 ,    0 ,   11 ,   24 ,  149 ,  112 ,  113 ,   54 ,  190 ,  216 
E: 000000.087864 64 01 83 84 7e 81 00 00 42 08 00 00 00 81 fb be d8 fb ff f2 ff 07 00 d9 ff 68 20 73 05 dd 10 b9 28 0e 80 00 00 00 80 00 00 00 00 00 09 00 00 00 00 00 4c 00 08 00 17 08 00 0b 18 95 70 71 36 be d8
# ReportID: 1 / X:  131 | Y:  132 | Z:  126 | Rz:  129 | Rx:    0 | Ry:    0 | 0xff000020:   67 | Hat switch:   8 | Button: 0  0  0  0  0  0  0  0  0  0  0  0  0  0  0 | 0xff000021: 0 , 0 , 0 , 0 , 0 , 0 , 0 , 0 , 0 , 0 , 0 , 0 , 0 | 0xff000022:  130 ,  251 ,  190 ,  216 ,  250 ,  255 ,  243 ,  255 ,    6 ,    0 ,  193 ,  255 ,   79 ,   32 ,  111 ,    5 ,  220 ,   27 ,  185 ,   40 ,   14 ,  128 ,    0 ,    0 ,    0 ,  128 ,    0 ,    0 ,    0 ,    0 ,    0 ,    9 ,    0 ,    0 ,    0 ,    0 ,    0 ,   76 ,    0 ,    8 ,    0 ,   23 ,    8 ,    0 ,  197 ,   71 ,  233 ,  147 ,   75 ,   90 ,  157 ,  118 
E: 000000.088777 64 01 83 84 7e 81 00 00 43 08 00 00 00 82 fb be d8 fa ff f3 ff 06 00 c1 ff 4f 20 6f 05 dc 1b b9 28 0e 80 00 00 00 80 00 00 00 00 00 09 00 00 00 00 00 4c 00 08 00 17 08 00 c5 47 e9 93 4b 5a 9d 76
# ReportID: 1 / X:  131 | Y:  132 | Z:  126 | Rz:  129 | Rx:    0 | Ry:    0 | 0xff000020:   68 | Hat switch:   8 | Button: 0  0  0  0  0  0  0  0  0  0  0  0  0  0  0 | 0xff000021: 0 , 0 , 0 , 0 , 0 , 0 , 0 , 0 , 0 , 0 , 0 , 0 , 0 | 0xff000022:  131 ,  251 ,  190 ,  216 ,  250 ,  255 ,  244 ,  255 ,    7 ,    0 ,  187 ,  255 ,   87 ,   32 ,  116 ,    5 ,  220 ,   38 ,  185 ,   40 ,   14 ,  128 ,    0 ,    0 ,    0 ,  128 ,    0 ,    0 ,    0 ,    0 ,    0 ,    9 ,    0 ,    0 ,    0 ,    0 ,    0 ,   76 ,    0 ,    8 ,    0 ,   23 ,    8 ,    0 ,  177 ,  240 ,    2 ,  175 ,  215 ,  187 ,  197 ,  199 
E: 000000.089798 64 01 83 84 7e 81 00 00 44 08 00 00 00 83 fb be d8 fa ff f4 ff 07 00 bb ff 57 20 74 05 dc 26 b9 28 0e 80 00 00 00 80 00 00 00 00 00 09 00 00 00 00 00 4c 00 08 00 17 08 00 b1 f0 02 af d7 bb c5 c7
# ReportID: 1 / X:  131 | Y:  132 | Z:  126 | Rz:  129 | Rx:    0 | Ry:    0 | 0xff000020:   69 | Hat switch:   8 | Button: 0  0  0  0  0  0  0  0  0  0  0  0  0  0  0 | 0xff000021: 0 , 0 , 0 , 0 , 0 , 0 , 0 , 0 , 0 , 0 , 0 , 0 , 0 | 0xff000022:  132 ,  251 ,  190 ,  216 ,  249 ,  255 ,  245 ,  255 ,    7 ,    0 ,  175 ,  255 ,   55 ,   32 ,  131 ,    5 ,  222 ,   49 ,  185 ,   40 ,   14 ,  128 ,    0 ,    0 ,    0 ,  128 ,    0 ,    0 ,    0 ,    0 ,    0 ,    9 ,    0 ,    0 ,    0 ,    0 ,    0 ,   76 ,    0 ,    8 ,    0 ,   23 ,    8 ,    0 ,  204 ,  166 ,  184 ,   18 ,  235 ,   67 ,  182 ,   60 
E: 000000.090841 64 01 83 84 7e 81 00 00 45 08 00 00 00 84 fb be d8 f9 ff f5 ff 07 00 af ff 37 20 83 05 de 31 b9 28 0e 80 00 00 00 80 00 00 00 00 00 09 00 00 00 00 00 4c 00 08 00 17 08 00 cc a6 b8 12 eb 43 b6 3c
# ReportID: 1 / X:  131 | Y:  132 | Z:  126 | Rz:  129 | Rx:    0 | Ry:    0 | 0xff000020:   70 | Hat switch:   8 | Button: 0  0  0  0  0  0  0  0  0  0  0  0  0  0  0 | 0xff000021: 0 , 0 , 0 , 0 , 0 , 0 , 0 , 0 , 0 , 0 , 0 , 0 , 0 | 0xff000022:  133 ,  251 ,  190 ,  216 ,  249 ,  255 ,  245 ,  255 ,    6 ,    0 ,  179 ,  255 ,   41 ,   32 ,  162 ,    5 ,  222 ,   60 ,  185 ,   40 ,   14 ,  128 ,    0 ,    0 ,    0 ,  128 ,    0 ,    0 ,    0 ,    0 ,    0 ,    9 ,    0 ,    0 ,    0 ,    0 ,    0 ,   76 ,    0 ,    8 ,    0 ,   23 ,    8 ,    0 ,   22 ,   32 ,  180 ,   40 ,  128 ,   29 ,  241 ,   61 
E: 000000.091777 64 01 83 84 7e 81 00 00 46 08 00 00 00 85 fb be d8 f9 ff f5 ff 06 00 b3 ff 29 20 a2 05 de 3c b9 28 0e 80 00 00 00 80 00 00 00 00 00 09 00 00 00 00 00 4c 00 08 00 17 08 00 16 20 b4 28 80 1d f1 3d
# ReportID: 1 / X:  131 | Y:  132 | Z:  125 | Rz:  129 | Rx:    0 | Ry:    0 | 0xff000020:   71 | Hat switch:   8 | Button: 0  0  0  0  0  0  0  0  0  0  0  0  0  0  0 | 0xff000021: 0 , 0 , 0 , 0 , 0 , 0 , 0 , 0 , 0 , 0 , 0 , 0 , 0 | 0xff000022:  134 ,  251 ,  190 ,  216 ,  251 ,  255 ,  246 ,  255 ,    6 ,    0 ,  199 ,  255 ,   49 ,   32 ,  191 ,    5 ,  134 ,   75 ,  185 ,   40 ,   14 ,  128 ,    0 ,    0 ,    0 ,  128 ,    0 ,    0 ,    0 ,    0 ,    0 ,    9 ,    0 ,    0 ,    0 ,    0 ,    0 ,   76 ,    0 ,    8 ,    0 ,   23 ,    8 ,    0 ,  219 ,   41 ,  127 ,   85 ,  173 ,  105 ,   29 ,  150 
E: 000000.092911 64 01 83 84 7d 81 00 00 47 08 00 00 00 86 fb be d8 fb ff f6 ff 06 00 c7 ff 31 20 bf 05 86 4b b9 28 0e 80 00 00 00 80 00 00 00 00 00 09 00 00 00 00 00 4c 00 08 00 17 08 00 db 29 7f 55 ad 69 1d 96
# ReportID: 1 / X:  131 | Y:  132 | Z:  126 | Rz:  129 | Rx:    0 | Ry:    0 | 0xff000020:   72 | Hat switch:   8 | Button: 0  0  0  0  0  0  0  0  0  0  0  0  0  0  0 | 0xff000021: 0 , 0 , 0 , 0 , 0 , 0 , 0 , 0 , 0 , 0 , 0 , 0 , 0 | 0xff000022:  135 ,  251 ,  190 ,  216 ,  249 ,  255 ,  243 ,  255 ,    7 ,    0 ,  195 ,  255 ,   54 ,   32 ,  179 ,    5 ,  133 ,   86 ,  185 ,   40 ,   14 ,  128 ,    0 ,    0 ,    0 ,  128 ,    0 ,    0 ,    0 ,    0 ,    0 ,    9 ,    0 ,    0 ,    0 ,    0 ,    0 ,   76 ,    0 ,    8 ,    0 ,   23 ,    8 ,    0 ,   70 ,  124 ,  208 ,  164 ,   88 ,   36 ,    1 ,  229 
E: 000000.093707 64 01 83 84 7e 81 00 00 48 08 00 00 00 87 fb be d8 f9 ff f3 ff 07 00 c3 ff 36 20 b3 05 85 56 b9 28 0e 80 00 00 00 80 00 00 00 00 00 09 00 00 00 00 00 4c 00 08 00 17 08 00 46 7c d0 a4 58 24 01 e5
# ReportID: 1 / X:  131 | Y:  132 | Z:  126 | Rz:  129 | Rx:    0 | Ry:    0 | 0xff000020:   73 | Hat switch:   8 | Button: 0  0  0  0  0  0  0  0  0  0  0  0  0  0  0 | 0xff000021: 0 , 0 , 0 , 0 , 0 , 0 , 0 , 0 , 0 , 0 , 0 , 0 , 0 | 0xff000022:  136 ,  251 ,  190 ,  216 ,  251 ,  255 ,  247 ,  255 ,    7 ,    0 ,  199 ,  255 ,   66 ,   32 ,  174 ,    5 ,  133 ,   97 ,  185 ,   40 ,   14 ,  128 ,    0 ,    0 ,    0 ,  128 ,    0 ,    0 ,    0 ,    0 ,    0 ,    9 ,    0 ,    0 ,    0 ,    0 ,    0 ,   76 ,    0 ,    8 ,    0 ,   23 ,    8 ,    0 ,    4 ,   72 ,  189 ,   28 ,  122 ,   58 ,  159 ,   63 
E: 000000.094511 64 01 83 84 7e 81 00 00 49 08 00 00 00 88 fb be d8 fb ff f7 ff 07 00 c7 ff 42 20 ae 05 85 61 b9 28 0e 80 00 00 00 80 00 00 00 00 00 09 00 00 00 00 00 4c 00 08 00 17 08 00 04 48 bd 1c 7a 3a 9f 3f
# ReportID: 1 / X:  131 | Y:  132 | Z:  126 | Rz:  129 | Rx:    0 | Ry:    0 | 0xff000020:   74 | Hat switch:   8 | Button: 0  0  0  0  0  0  0  0  0  0  0  0  0  0  0 | 0xff000021: 0 , 0 , 0 , 0 , 0 , 0 , 0 , 0 , 0 , 0 , 0 , 0 , 0 | 0xff000022:  137 ,  251 ,  190 ,  216 ,  253 ,  255 ,  247 ,  255 ,    7 ,    0 ,  210 ,  255 ,   86 ,   32 ,  167 ,    5 ,  132 ,  108 ,  185 ,   40 ,   14 ,  128 ,    0 ,    0 ,    0 ,  128 ,    0 ,    0 ,    0 ,    0 ,    0 ,    9 ,    0 ,    0 ,    0 ,    0 ,    0 ,   76 ,    0 ,    8 ,    0 ,   23 ,    8 ,    0 ,   57 ,  191 ,  255 ,   55 ,   74 ,  202 ,  172 ,  109 
E: 000000.095303 64 01 83 84 7e 81 00 00 4a 08 00 00 00 89 fb be d8 fd ff f7 ff 07 00 d2 ff 56 20 a7 05 84 6c b9 28 0e 80 00 00 00 80 00 00 00 00 00 09 00 00 00 00 00 4c 00 08 00 17 08 00 39 bf ff 37 4a ca ac 6d
# ReportID: 1 / X:  131 | Y:  132 | Z:  126 | Rz:  129 | Rx:    0 | Ry:    0 | 0xff000020:   75 | Hat switch:   8 | Button: 0  0  0  0  0  0  0  0  0  0  0  0  0  0  0 | 0xff000021: 0 , 0 , 0 , 0 , 0 , 0 , 0 , 0 , 0 , 0 , 0 , 0 , 0 | 0xff000022:  138 ,  251 ,  190 ,  216 ,  253 ,  255 ,  246 ,  255 ,    5 ,    0 ,  204 ,  255 ,  108 ,   32 ,  137 ,    5 ,  132 ,  119 ,  185 ,   40 ,   14 ,  128 ,    0 ,    0 ,    0 ,  128 ,    0 ,    0 ,    0 ,    0 ,    0 ,    9 ,    0 ,    0 ,    0 ,    0 ,    0 ,   76 ,    0 ,    8 ,    0 ,   23 ,    8 ,    0 ,  155 ,  151 ,    3 ,   70 ,   32 ,    1 ,  218 ,  183 
E: 000000.096444 64 01 83 84 7e 81 00 00 4b 08 00 00 00 8a fb be d8 fd ff f6 ff 05 00 cc ff 6c 20 89 05 84 77 b9 28 0e 80 00 00 00 80 00 00 00 00 00 09 00 00 00 00 00 4c 00 08 00 17 08 00 9b 97 03 46 20 01 da b7
# ReportID: 1 / X:  131 | Y:  132 | Z:  126 | Rz:  129 | Rx:    0 | Ry:    0 | 0xff000020:   76 | Hat switch:   8 | Button: 0  0  0  0  0  0  0  0  0  0  0  0  0  0  0 | 0xff000021: 0 , 0 , 0 , 0 , 0 , 0 , 0 , 0 , 0 , 0 , 0 , 0 , 0 | 0xff000022:  139 ,  251 ,  190 ,  216 ,  253 ,  255 ,  248 ,  255 ,    5 ,    0 ,  186 ,  255 ,  122 ,   32 ,  121 ,    5 ,   46 ,  134 ,  185 ,   40 ,   14 ,  128 ,    0 ,    0 ,    0 ,  128 ,    0 ,    0 ,    0 ,    0 ,    0 ,    9 ,    0 ,    0 ,    0 ,    0 ,    0 ,   76 ,    0 ,    8 ,    0 ,   23 ,    8 ,    0 ,  216 ,  251 ,  194 ,  182 ,  203 ,  207 ,  175 ,   66 
E: 000000.097335 64 01 83 84 7e 81 00 00 4c 08 00 00 00 8b fb be d8 fd ff f8 ff 05 00 ba ff 7a 20 79 05 2e 86 b9 28 0e 80 00 00 00 80 00 00 00 00 00 09 00 00 00 00 00 4c 00 08 00 17 08 00 d8 fb c2 b6 cb cf af 42
# ReportID: 1 / X:  131 | Y:  132 | Z:  125 | Rz:  129 | Rx:    0 | Ry:    0 | 0xff000020:   77 | Hat switch:   8 | Button: 0  0  0  0  0  0  0  0  0  0  0  0  0  0  0 | 0xff000021: 0 , 0 , 0 , 0 , 0 , 0 , 0 , 0 , 0 , 0 , 0 , 0 , 0 | 0xff000022:  140 ,  251 ,  190 ,  216 ,  251 ,  255 ,  243 ,  255 ,    5 ,    0 ,  169 ,  255 ,  130 ,   32 ,  106 ,    5 ,   45 ,  145 ,  185 ,   40 ,   14 ,  128 ,    0 ,    0 ,    0 ,  128 ,    0 ,    0 ,    0 ,    0 ,    0 ,    9 ,    0 ,    0 ,    0 ,    0 ,    0 ,   76 ,    0 ,    8 ,    0 ,   23 ,    8 ,    0 ,  167 ,   35 ,  248 ,   74 ,   67 ,   30 ,  225 ,  146 
E: 000000.098358 64 01 83 84 7d 81 00 00 4d 08 00 00 00 8c fb be d8 fb ff f3 ff 05 00 a9 ff 82 20 6a 05 2d 91 b9 28 0e 80 00 00 00 80 00 00 00 00 00 09 00 00 00 00 00 4c 00 08 00 17 08 00 a7 23 f8 4a 43 1e e1 92
# ReportID: 1 / X:  131 | Y:  132 | Z:  126 | Rz:  129 | Rx:    0 | Ry:    0 | 0xff000020:   78 | Hat switch:   8 | Button: 0  0  0  0  0  0  0  0  0  0  0  0  0  0  0 | 0xff000021: 0 , 0 , 0 , 0 , 0 , 0 , 0 , 0 , 0 , 0 , 0 , 0 , 0 | 0xff000022:  141 ,  251 ,  190 ,  216 ,  249 ,  255 ,  247 ,  255 ,    6 ,    0 ,  176 ,  255 ,  118 ,   32 ,  131 ,    5 ,   45 ,  156 ,  185 ,   40 ,   14 ,  128 ,    0 ,    0 ,    0 ,  128 ,    0 ,    0 ,    0 ,    0 ,    0 ,    9 ,    0 ,    0 ,    0 ,    0 ,    0 ,   76 ,    0 ,    8 ,    0 ,   23 ,    8 ,    0 ,  213 ,   55 ,  241 ,  169 ,   25 ,   37 ,   67 ,  244 
E: 000000.099305 64 01 83 84 7e 81 00 00 4e 08 00 00 00 8d fb be d8 f9 ff f7 ff 06 00 b0 ff 76 20 83 05 2d 9c b9 28 0e 80 00 00 00 80 00 00 00 00 00 09 00 00 00 00 00 4c 00 08 00 17 08 00 d5 37 f1 a9 19 25 43 f4
# ReportID: 1 / X:  131 | Y:  132 | Z:  126 | Rz:  129 | Rx:    0 | Ry:    0 | 0xff000020:   79 | Hat switch:   8 | Button: 0  0  0  0  0  0  0  0  0  0  0  0  0  0  0 | 0xff000021: 0 , 0 , 0 , 0 , 0 , 0 , 0 , 0 , 0 , 0 , 0 , 0 , 0 | 0xff000022:  142 ,  251 ,  190 ,  216 ,  249 ,  255 ,  245 ,  255 ,    7 ,    0 ,  181 ,  255 ,  100 ,   32 ,  139 ,    5 ,   44 ,  167 ,  185 ,   40 ,   14 ,  128 ,    0 ,    0 ,    0 ,  128 ,    0 ,    0 ,    0 ,    0 ,    0 ,    9 ,    0 ,    0 ,    0 ,    0 ,    0 ,   76 ,    0 ,    8 ,    0 ,   23 ,    8 ,    0 ,  151 ,  117 ,  147 ,  205 ,   75 ,    0 ,   50 ,   27 
E: 000000.100299 64 01 83 84 7e 81 00 00 4f 08 00 00 00 8e fb be d8 f9 ff f5 ff 07 00 b5 ff 64 20 8b 05 2c a7 b9 28 0e 80 00 00 00 80 00 00 00 00 00 09 00 00 00 00 00 4c 00 08 00 17 08 00 97 75 93 cd 4b 00 32 1b
# ReportID: 1 / X:  131 | Y:  132 | Z:  126 | Rz:  129 | Rx:    0 | Ry:    0 | 0xff000020:   80 | Hat switch:   8 | Button: 0  0  0  0  0  0  0  0  0  0  0  0  0  0  0 | 0xff000021: 0 , 0 , 0 , 0 , 0 , 0 , 0 , 0 , 0 , 0 , 0 , 0 , 0 | 0xff000022:  143 ,  251 ,  190 ,  216 ,  250 ,  255 ,  245 ,  255 ,    7 ,    0 ,  184 ,  255 ,  102 ,   32 ,  140 ,    5 ,   44 ,  178 ,  185 ,   40 ,   14 ,  128 ,    0 ,    0 ,    0 ,  128 ,    0 ,    0 ,    0 ,    0 ,    0 ,    9 ,    0 ,    0 ,    0 ,    0 ,    0 ,   76 ,    0 ,    8 ,    0 ,   23 ,    8 ,    0 ,  205 ,  112 ,  218 ,  183 ,  109 ,  152 ,  163 ,  239 
E: 000000.101367 64 01 83 84 7e 81 00 00 50 08 00 00 00 8f fb be d8 fa ff f5 ff 07 00 b8 ff 66 20 8c 05 2c b2 b9 28 0e 80 00 00 00 80 00 00 00 00 00 09 00 00 00 00 00 4c 00 08 00 17 08 00 cd 70 da b7 6d 98 a3 ef
# ReportID: 1 / X:  131 | Y:  132 | Z:  126 | Rz:  129 | Rx:    0 | Ry:    0 | 0xff000020:   81 | Hat switch:   8 | Button: 0  0  0  0  0  0  0  0  0  0  0  0  0  0  0 | 0xff000021: 0 , 0 , 0 , 0 , 0 , 0 , 0 , 0 , 0 , 0 , 0 , 0 , 0 | 0xff000022:  144 ,  251 ,  190 ,  216 ,  250 ,  255 ,  244 ,  255 ,    7 ,    0 ,  197 ,  255 ,   71 ,   32 ,  158 ,    5 ,  214 ,  192 ,  185 ,   40 ,   14 ,  128 ,    0 ,    0 ,    0 ,  128 ,    0 ,    0 ,    0 ,    0 ,    0 ,    9 ,    0 ,    0 ,    0 ,    0 ,    0 ,   76 ,    0 ,    8 ,    0 ,   23 ,    8 ,    0 ,   88 ,   58 ,   13 ,   84 ,  177 ,  211 ,  106 ,  219 
E: 000000.102475 64 01 83 84 7e 81 00 00 51 08 00 00 00 90 fb be d8 fa ff f4 ff 07 00 c5 ff 47 20 9e 05 d6 c0 b9 28 0e 80 00 00 00 80 00 00 00 00 00 09 00 00 00 00 00 4c 00 08 00 17 08 00 58 3a 0d 54 b1 d3 6a db
# ReportID: 1 / X:  131 | Y:  132 | Z:  126 | Rz:  129 | Rx:    0 | Ry:    0 | 0xff000020:   82 | Hat switch:   8 | Button: 0  0  0  0  0  0  0  0  0  0  0  0  0  0  0 | 0xff000021: 0 , 0 , 0 , 0 , 0 , 0 , 0 , 0 , 0 , 0 , 0 , 0 , 0 | 0xff000022:  145 ,  251 ,  190 ,  216 ,  251 ,  255 ,  242 ,  255 ,    7 ,    0 ,  195 ,  255 ,   42 ,   32 ,  165 ,    5 ,  213 ,  203 ,  185 ,   40 ,   14 ,  128 ,    0 ,    0 ,    0 ,  128 ,    0 ,    0 ,    0 ,    0 ,    0 ,    9 ,    0 ,    0 ,    0 ,    0 ,    0 ,   76 ,    0 ,    8 ,    0 ,   23 ,    8 ,    0 ,   33 ,   33 ,   85 ,  225 ,  172 ,    3 ,  113 ,   45 
E: 000000.103490 64 01 83 84 7e 81 00 00 52 08 00 00 00 91 fb be d8 fb ff f2 ff 07 00 c3 ff 2a 20 a5 05 d5 cb b9 28 0e 80 00 00 00 80 00 00 00 00 00 09 00 00 00 00 00 4c 00 08 00 17 08 00 21 21 55 e1 ac 03 71 2d
# ReportID: 1 / X:  131 | Y:  132 | Z:  126 | Rz:  129 | Rx:    0 | Ry:    0 | 0xff000020:   83 | Hat switch:   8 | Button: 0  0  0  0  0  0  0  0  0  0  0  0  0  0  0 | 0xff000021: 0 , 0 , 0 , 0 , 0 , 0 , 0 , 0 , 0 , 0 , 0 , 0 , 0 | 0xff000022:  146 ,  251 ,  190 ,  216 ,  251 ,  255 ,  242 ,  255 ,    6 ,    0 ,  194 ,  255 ,   47 ,   32 ,  171 ,    5 ,  213 ,  214 ,  185 ,   40 ,   14 ,  128 ,    0 ,    0 ,    0 ,  128 ,    0 ,    0 ,    0 ,    0 ,    0 ,    9 ,    0 ,    0 ,    0 ,    0 ,    0 ,   76 ,    0 ,    8 ,    0 ,   23 ,    8 ,    0 ,  218 ,  184 ,  214 ,  186 ,  207 ,  158 ,   68 ,  109 
E: 000000.104536 64 01 83 84 7e 81 00 00 53 08 00 00 00 92 fb be d8 fb ff f2 ff 06 00 c2 ff 2f 20 ab 05 d5 d6 b9 28 0e 80 00 00 00 80 00 00 00 00 00 09 00 00 00 00 00 4c 00 08 00 17 08 00 da b8 d6 ba cf 9e 44 6d
# ReportID: 1 / X:  131 | Y:  132 | Z:  126 | Rz:  129 | Rx:    0 | Ry:    0 | 0xff000020:   84 | Hat switch:   8 | Button: 0  0  0  0  0  0  0  0  0  0  0  0  0  0  0 | 0xff000021: 0 , 0 , 0 , 0 , 0 , 0 , 0 , 0 , 0 , 0 , 0 , 0 , 0 | 0xff000022:  147 ,  251 ,  190 ,  216 ,  251 ,  255 ,  243 ,  255 ,    6 ,    0 ,  190 ,  255 ,   37 ,   32 ,  179 ,    5 ,  213 ,  225 ,  185 ,   40 ,   14 ,  128 ,    0 ,    0 ,    0 ,  128 ,    0 ,    0 ,    0 ,    0 ,    0 ,    9 ,    0 ,    0 ,    0 ,    0 ,    0 ,   76 ,    0 ,    8 ,    0 ,   23 ,    8 ,    0 ,  203 ,  241 ,   76 ,   96 ,  135 ,  193 ,  244 ,  139 
E: 000000.105670 64 01 83 84 7e 81 00 00 54 08 00 00 00 93 fb be d8 fb ff f3 ff 06 00 be ff 25 20 b3 05 d5 e1 b9 28 0e 80 00 00 00 80 00 00 00 00 00 09 00 00 00 00 00 4c 00 08 00 17 08 00 cb f1 4c 60 87 c1 f4 8b
# ReportID: 1 / X:  131 | Y:  132 | Z:  126 | Rz:  129 | Rx:    0 | Ry:    0 | 0xff000020:   85 | Hat switch:   8 | Button: 0  0  0  0  0  0  0  0  0  0  0  0  0  0  0 | 0xff000021: 0 , 0 , 0 , 0 , 0 , 0 , 0 , 0 , 0 , 0 , 0 , 0 , 0 | 0xff000022:  148 ,  251 ,  190 ,  216 ,  249 ,  255 ,  245 ,  255 ,    7 ,    0 ,  195 ,  255 ,   51 ,   32 ,  167 ,    5 ,  213 ,  236 ,  185 ,   40 ,   14 ,  128 ,    0 ,    0 ,    0 ,  128 ,    0 ,    0 ,    0 ,    0 ,    0 ,    9 ,    0 ,    0 ,    0 ,    0 ,    0 ,   76 ,    0 ,    8 ,    0 ,   23 ,    8 ,    0 ,   49 ,  218 ,   84 ,  190 ,  174 ,   18 ,  150 ,  144 
E: 000000.106811 64 01 83 84 7e 81 00 00 55 08 00 00 00 94 fb be d8 f9 ff f5 ff 07 00 c3 ff 33 20 a7 05 d5 ec b9 28 0e 80 00 00 00 80 00 00 00 00 00 09 00 00 00 00 00 4c 00 08 00 17 08 00 31 da 54 be ae 12 96 90
# ReportID: 1 / X:  131 | Y:  132 | Z:  126 | Rz:  129 | Rx:    0 | Ry:    0 | 0xff000020:   86 | Hat switch:   8 | Button: 0  0  0  0  0  0  0  0  0  0  0  0  0  0  0 | 0xff000021: 0 , 0 , 0 , 0 , 0 , 0 , 0 , 0 , 0 , 0 , 0 , 0 , 0 | 0xff000022:  149 ,  251 ,  190 ,  216 ,  250 ,  255 ,  245 ,  255 ,    8 ,    0 ,  188 ,  255 ,   74 ,   32 ,  142 ,    5 ,  127 ,  251 ,  185 ,   40 ,   14 ,  128 ,    0 ,    0 ,    0 ,  128 ,    0 ,    0 ,    0 ,    0 ,    0 ,    9 ,    0 ,    0 ,    0 ,    0 ,    0 ,   76 ,    0 ,    8 ,    0 ,   23 ,    8 ,    0 ,  178 ,   32 ,  162 ,  131 ,   73 ,   84 ,  152 ,   96 
E: 000000.107987 64 01 83 84 7e 81 00 00 56 08 00 00 00 95 fb be d8 fa ff f5 ff 08 00 bc ff 4a 20 8e 05 7f fb b9 28 0e 80 00 00 00 80 00 00 00 00 00 09 00 00 00 00 00 4c 00 08 00 17 08 00 b2 20 a2 83 49 54 98 60
# ReportID: 1 / X:  131 | Y:  132 | Z:  126 | Rz:  129 | Rx:    0 | Ry:    0 | 0xff000020:   87 | Hat switch:   8 | Button: 0  0  0  0  0  0  0  0  0  0  0  0  0  0  0 | 0xff000021: 0 , 0 , 0 , 0 , 0 , 0 , 0 , 0 , 0 , 0 , 0 , 0 , 0 | 0xff000022:  150 ,  251 ,  190 ,  216 ,  252 ,  255 ,  245 ,  255 ,    6 ,    0 ,  190 ,  255 ,  101 ,   32 ,  142 ,    5 ,  126 ,    6 ,  186 ,   40 ,   14 ,  128 ,    0 ,    0 ,    0 ,  128 ,    0 ,    0 ,    0 ,    0 ,    0 ,    9 ,    0 ,    0 ,    0 ,    0 ,    0 ,   76 ,    0 ,    8 ,    0 ,   23 ,    8 ,    0 ,  120 ,  149 ,   18 ,   17 ,  200 ,  236 ,  246 ,   98 
E: 000000.109325 64 01 83 84 7e 81 00 00 57 08 00 00 00 96 fb be d8 fc ff f5 ff 06 00 be ff 65 20 8e 05 7e 06 ba 28 0e 80 00 00 00 80 00 00 00 00 00 09 00 00 00 00 00 4c 00 08 00 17 08 00 78 95 12 11 c8 ec f6 62
# ReportID: 1 / X:  131 | Y:  132 | Z:  126 | Rz:  129 | Rx:    0 | Ry:    0 | 0xff000020:   88 | Hat switch:   8 | Button: 0  0  0  0  0  0  0  0  0  0  0  0  0  0  0 | 0xff000021: 0 , 0 , 0 , 0 , 0 , 0 , 0 , 0 , 0 , 0 , 0 , 0 , 0 | 0xff000022:  151 ,  251 ,  190 ,  216 ,  251 ,  255 ,  248 ,  255 ,    6 ,    0 ,  189 ,  255 ,  116 ,   32 ,  134 ,    5 ,  126 ,   17 ,  186 ,   40 ,   14 ,  128 ,    0 ,    0 ,    0 ,  128 ,    0 ,    0 ,    0 ,    0 ,    0 ,    9 ,    0 ,    0 ,    0 ,    0 ,    0 ,   76 ,    0 ,    8 ,    0 ,   23 ,    8 ,    0 ,  227 ,  188 ,  103 ,  167 ,  243 ,  255 ,  227 ,   94 
E: 000000.110597 64 01 83 84 7e 81 00 00 58 08 00 00 00 97 fb be d8 fb ff f8 ff 06 00 bd ff 74 20 86 05 7e 11 ba 28 0e 80 00 00 00 80 00 00 00 00 00 09 00 00 00 00 00 4c 00 08 00 17 08 00 e3 bc 67 a7 f3 ff e3 5e
# ReportID: 1 / X:  131 | Y:  132 | Z:  126 | Rz:  129 | Rx:    0 | Ry:    0 | 0xff000020:   89 | Hat switch:   8 | Button: 0  0  0  0  0  0  0  0  0  0  0  0  0  0  0 | 0xff000021: 0 , 0 , 0 , 0 , 0 , 0 , 0 , 0 , 0 , 0 , 0 , 0 , 0 | 0xff000022:  152 ,  251 ,  190 ,  216 ,  249 ,  255 ,  245 ,  255 ,    6 ,    0 ,  186 ,  255 ,  141 ,   32 ,  120 ,    5 ,  125 ,   28 ,  186 ,   40 ,   14 ,  128 ,    0 ,    0 ,    0 ,  128 ,    0 ,    0 ,    0 ,    0 ,    0 ,    9 ,    0 ,    0 ,    0 ,    0 ,    0 ,   76 ,    0 ,    8 ,    0 ,   23 ,    8 ,    0 ,  118 ,  205 ,  127 ,  145 ,  179 ,   31 ,   16 ,  107 
E: 000000.111650 64 01 83 84 7e 81 00 00 59 08 00 00 00 98 fb be d8 f9 ff f5 ff 06 00 ba ff 8d 20 78 05 7d 1c ba 28 0e 80 00 00 00 80 00 00 00 00 00 09 00 00 00 00 00 4c 00 08 00 17 08 00 76 cd 7f 91 b3 1f 10 6b
